{
  "abi": [
    {
      "inputs": [],
      "stateMutability": "nonpayable",
      "type": "constructor"
    },
    {
      "anonymous": false,
      "inputs": [
        {
          "indexed": true,
          "internalType": "address",
          "name": "owner",
          "type": "address"
        },
        {
          "indexed": true,
          "internalType": "address",
          "name": "approved",
          "type": "address"
        },
        {
          "indexed": true,
          "internalType": "uint256",
          "name": "tokenId",
          "type": "uint256"
        }
      ],
      "name": "Approval",
      "type": "event"
    },
    {
      "anonymous": false,
      "inputs": [
        {
          "indexed": true,
          "internalType": "address",
          "name": "owner",
          "type": "address"
        },
        {
          "indexed": true,
          "internalType": "address",
          "name": "operator",
          "type": "address"
        },
        {
          "indexed": false,
          "internalType": "bool",
          "name": "approved",
          "type": "bool"
        }
      ],
      "name": "ApprovalForAll",
      "type": "event"
    },
    {
      "anonymous": false,
      "inputs": [
        {
          "indexed": true,
          "internalType": "address",
          "name": "from",
          "type": "address"
        },
        {
          "indexed": true,
          "internalType": "address",
          "name": "to",
          "type": "address"
        },
        {
          "indexed": true,
          "internalType": "uint256",
          "name": "tokenId",
          "type": "uint256"
        }
      ],
      "name": "Transfer",
      "type": "event"
    },
    {
      "anonymous": false,
      "inputs": [
        {
          "indexed": true,
          "internalType": "uint256",
          "name": "tokenId",
          "type": "uint256"
        }
      ],
      "name": "edMinted",
      "type": "event"
    },
    {
      "inputs": [
        {
          "internalType": "address",
          "name": "to",
          "type": "address"
        },
        {
          "internalType": "uint256",
          "name": "tokenId",
          "type": "uint256"
        }
      ],
      "name": "approve",
      "outputs": [],
      "stateMutability": "nonpayable",
      "type": "function"
    },
    {
      "inputs": [
        {
          "internalType": "address",
          "name": "owner",
          "type": "address"
        }
      ],
      "name": "balanceOf",
      "outputs": [
        {
          "internalType": "uint256",
          "name": "",
          "type": "uint256"
        }
      ],
      "stateMutability": "view",
      "type": "function"
    },
    {
      "inputs": [
        {
          "internalType": "uint256",
          "name": "",
          "type": "uint256"
        }
      ],
      "name": "energyData",
      "outputs": [
        {
          "internalType": "uint256",
          "name": "wattHours",
          "type": "uint256"
        },
        {
          "internalType": "uint256",
          "name": "timestamp",
          "type": "uint256"
        },
        {
          "internalType": "string",
          "name": "location",
          "type": "string"
        },
        {
          "internalType": "string",
          "name": "powerPlantType",
          "type": "string"
        }
      ],
      "stateMutability": "view",
      "type": "function"
    },
    {
      "inputs": [
        {
          "internalType": "uint256",
          "name": "tokenId",
          "type": "uint256"
        }
      ],
      "name": "getApproved",
      "outputs": [
        {
          "internalType": "address",
          "name": "",
          "type": "address"
        }
      ],
      "stateMutability": "view",
      "type": "function"
    },
    {
      "inputs": [
        {
          "internalType": "uint256",
          "name": "tokenId",
          "type": "uint256"
        }
      ],
      "name": "getEnergyData",
      "outputs": [
        {
          "components": [
            {
              "internalType": "uint256",
              "name": "wattHours",
              "type": "uint256"
            },
            {
              "internalType": "uint256",
              "name": "timestamp",
              "type": "uint256"
            },
            {
              "internalType": "string",
              "name": "location",
              "type": "string"
            },
            {
              "internalType": "string",
              "name": "powerPlantType",
              "type": "string"
            }
          ],
          "internalType": "struct EnergyD.EnergyData",
          "name": "",
          "type": "tuple"
        }
      ],
      "stateMutability": "view",
      "type": "function"
    },
    {
      "inputs": [],
      "name": "getTokenCounter",
      "outputs": [
        {
          "internalType": "uint256",
          "name": "",
          "type": "uint256"
        }
      ],
      "stateMutability": "view",
      "type": "function"
    },
    {
      "inputs": [
        {
          "internalType": "address",
          "name": "owner",
          "type": "address"
        },
        {
          "internalType": "address",
          "name": "operator",
          "type": "address"
        }
      ],
      "name": "isApprovedForAll",
      "outputs": [
        {
          "internalType": "bool",
          "name": "",
          "type": "bool"
        }
      ],
      "stateMutability": "view",
      "type": "function"
    },
    {
      "inputs": [
        {
          "internalType": "address",
          "name": "to",
          "type": "address"
        },
        {
          "internalType": "uint256",
          "name": "wattHours",
          "type": "uint256"
        },
        {
          "internalType": "uint256",
          "name": "timestamp",
          "type": "uint256"
        },
        {
          "internalType": "string",
          "name": "location",
          "type": "string"
        },
        {
          "internalType": "string",
          "name": "powerPlantType",
          "type": "string"
        }
      ],
      "name": "mint",
      "outputs": [],
      "stateMutability": "nonpayable",
      "type": "function"
    },
    {
      "inputs": [],
      "name": "name",
      "outputs": [
        {
          "internalType": "string",
          "name": "",
          "type": "string"
        }
      ],
      "stateMutability": "view",
      "type": "function"
    },
    {
      "inputs": [
        {
          "internalType": "uint256",
          "name": "tokenId",
          "type": "uint256"
        }
      ],
      "name": "ownerOf",
      "outputs": [
        {
          "internalType": "address",
          "name": "",
          "type": "address"
        }
      ],
      "stateMutability": "view",
      "type": "function"
    },
    {
      "inputs": [
        {
          "internalType": "address",
          "name": "from",
          "type": "address"
        },
        {
          "internalType": "address",
          "name": "to",
          "type": "address"
        },
        {
          "internalType": "uint256",
          "name": "tokenId",
          "type": "uint256"
        }
      ],
      "name": "safeTransferFrom",
      "outputs": [],
      "stateMutability": "nonpayable",
      "type": "function"
    },
    {
      "inputs": [
        {
          "internalType": "address",
          "name": "from",
          "type": "address"
        },
        {
          "internalType": "address",
          "name": "to",
          "type": "address"
        },
        {
          "internalType": "uint256",
          "name": "tokenId",
          "type": "uint256"
        },
        {
          "internalType": "bytes",
          "name": "_data",
          "type": "bytes"
        }
      ],
      "name": "safeTransferFrom",
      "outputs": [],
      "stateMutability": "nonpayable",
      "type": "function"
    },
    {
      "inputs": [
        {
          "internalType": "address",
          "name": "operator",
          "type": "address"
        },
        {
          "internalType": "bool",
          "name": "approved",
          "type": "bool"
        }
      ],
      "name": "setApprovalForAll",
      "outputs": [],
      "stateMutability": "nonpayable",
      "type": "function"
    },
    {
      "inputs": [
        {
          "internalType": "bytes4",
          "name": "interfaceId",
          "type": "bytes4"
        }
      ],
      "name": "supportsInterface",
      "outputs": [
        {
          "internalType": "bool",
          "name": "",
          "type": "bool"
        }
      ],
      "stateMutability": "view",
      "type": "function"
    },
    {
      "inputs": [],
      "name": "symbol",
      "outputs": [
        {
          "internalType": "string",
          "name": "",
          "type": "string"
        }
      ],
      "stateMutability": "view",
      "type": "function"
    },
    {
      "inputs": [
        {
          "internalType": "uint256",
          "name": "tokenId",
          "type": "uint256"
        }
      ],
      "name": "tokenURI",
      "outputs": [
        {
          "internalType": "string",
          "name": "",
          "type": "string"
        }
      ],
      "stateMutability": "view",
      "type": "function"
    },
    {
      "inputs": [
        {
          "internalType": "address",
          "name": "from",
          "type": "address"
        },
        {
          "internalType": "address",
          "name": "to",
          "type": "address"
        },
        {
          "internalType": "uint256",
          "name": "tokenId",
          "type": "uint256"
        }
      ],
      "name": "transferFrom",
      "outputs": [],
      "stateMutability": "nonpayable",
      "type": "function"
    }
  ],
  "bytecode": "60803462000316576001600160401b03906040908082018381118282101762000300578252600a81526020906914995b995dd51c9d5cdd60b21b8282015282519383850185811082821117620003005784526005855264524e542d4560d81b83860152815181811162000300576000938454916001948584811c94168015620002f5575b83851014620002e1578190601f948581116200028e575b5083908583116001146200022a5788926200021e575b5050600019600383901b1c191690851b1785555b86519283116200020a5783548481811c91168015620001ff575b82821014620001eb57828111620001a3575b50809183116001146200013c57508394958293949262000130575b5050600019600383901b1c191690821b1790555b60075551611f6790816200031c8239f35b0151905038806200010b565b90601f198316968486528286209286905b8982106200018b57505083859697981062000171575b505050811b0190556200011f565b015160001960f88460031b161c1916905538808062000163565b8087859682949686015181550195019301906200014d565b8486528186208380860160051c820192848710620001e1575b0160051c019085905b828110620001d5575050620000f0565b878155018590620001c5565b92508192620001bc565b634e487b7160e01b86526022600452602486fd5b90607f1690620000de565b634e487b7160e01b85526041600452602485fd5b015190503880620000b0565b8880528489208894509190601f1984168a5b878282106200027757505084116200025d575b505050811b018555620000c4565b015160001960f88460031b161c191690553880806200024f565b8385015186558b979095019493840193016200023c565b9091508780528388208580850160051c820192868610620002d7575b918991869594930160051c01915b828110620002c85750506200009a565b8a8155859450899101620002b8565b92508192620002aa565b634e487b7160e01b87526022600452602487fd5b93607f169362000083565b634e487b7160e01b600052604160045260246000fd5b600080fdfe6080604052600436101561001257600080fd5b60003560e01c806301ffc9a71461012757806306fdde0314610122578063081812fc1461011d578063095ea7b31461011857806323b872dd1461011357806342842e0e1461010e57806361f2c1e8146101095780636352211e146101045780636d013618146100ff5780636e02007d146100fa57806370a08231146100f557806395d89b41146100f0578063a22cb465146100eb578063b88d4fde146100e6578063beb8c972146100e1578063c87b56dd146100dc5763e985e9c5146100d757600080fd5b610e44565b610e11565b610d87565b610cde565b610bf2565b610b4b565b610aa9565b610a8b565b610742565b6106a9565b610635565b61049d565b610474565b610350565b6102f4565b61020d565b610143565b6001600160e01b031981160361013e57565b600080fd5b3461013e57602036600319011261013e5760206004356101628161012c565b63ffffffff60e01b166380ac58cd60e01b81149081156101a0575b811561018f575b506040519015158152f35b6301ffc9a760e01b14905038610184565b635b5e139f60e01b8114915061017d565b60005b8381106101c45750506000910152565b81810151838201526020016101b4565b906020916101ed815180928185528580860191016101b1565b601f01601f1916010190565b90602061020a9281815201906101d4565b90565b3461013e576000806003193601126102f1576040519080805490610230826104c5565b808552916020916001918281169081156102c4575060011461026d575b6102698661025d8188038261056e565b604051918291826101f9565b0390f35b80809550527f290decd9548b62a8d60345a988386fc84ba6bc95484008f6362f93160ef3e5635b8385106102b15750505050810160200161025d826102693861024d565b8054868601840152938201938101610294565b90508695506102699693506020925061025d94915060ff191682840152151560051b82010192933861024d565b80fd5b3461013e57602036600319011261013e576020610312600435610ea1565b6040516001600160a01b039091168152f35b600435906001600160a01b038216820361013e57565b602435906001600160a01b038216820361013e57565b3461013e57604036600319011261013e57610369610324565b6024356103758161101e565b916001600160a01b0380841690821681146103f0576103a7936103a29133149081156103a9575b50610f33565b611494565b005b6001600160a01b031660009081526005602052604090206103ea91506103e39033905b9060018060a01b0316600052602052604060002090565b5460ff1690565b3861039c565b60405162461bcd60e51b815260206004820152602160248201527f4552433732313a20617070726f76616c20746f2063757272656e74206f776e656044820152603960f91b6064820152608490fd5b606090600319011261013e576001600160a01b0390600435828116810361013e5791602435908116810361013e579060443590565b3461013e576103a76104853661043f565b9161049861049384336114f8565b610fa5565b61164a565b3461013e576103a76104ae3661043f565b90604051926104bc84610536565b60008452611326565b90600182811c921680156104f5575b60208310146104df57565b634e487b7160e01b600052602260045260246000fd5b91607f16916104d4565b634e487b7160e01b600052604160045260246000fd5b6080810190811067ffffffffffffffff82111761053157604052565b6104ff565b6020810190811067ffffffffffffffff82111761053157604052565b6040810190811067ffffffffffffffff82111761053157604052565b90601f8019910116810190811067ffffffffffffffff82111761053157604052565b906040519182600082546105a3816104c5565b9081845260209460019160018116908160001461061357506001146105d4575b5050506105d29250038361056e565b565b600090815285812095935091905b8183106105fb5750506105d293508201013880806105c3565b855488840185015294850194879450918301916105e2565b925050506105d294925060ff191682840152151560051b8201013880806105c3565b3461013e57602036600319011261013e5760043560005260086020526040600020805461026960018301549261069b61067c600361067560028501610590565b9301610590565b91604051958695865260208601526080604086015260808501906101d4565b9083820360608501526101d4565b3461013e57602036600319011261013e57602061031260043561101e565b604051906105d282610515565b67ffffffffffffffff811161053157601f01601f191660200190565b9291926106fc826106d4565b9161070a604051938461056e565b82948184528183011161013e578281602093846000960137010152565b9080601f8301121561013e5781602061020a933591016106f0565b3461013e5760a036600319011261013e5761075b610324565b602435604435906064359267ffffffffffffffff9384811161013e57610785903690600401610727565b9360843590811161013e5761079e903690600401610727565b906007546107ab91611780565b600754807f8ea46e27212145880df5c7cb43bf866323401fdf3376c1f1d1e39c19ff1decf9600080a26107dc6106c7565b90838252846020830152856040830152826060830152610806906000526008602052604060002090565b90610810916111c2565b6007549361081d85611923565b9261082790611923565b9361083190611923565b604051757b226e616d65223a2022456e65726779204e4654202360501b602082015294859460368601610863916112ca565b7f222c20226465736372697074696f6e223a2022526570726573656e747320656e81527f657267792067656e657261746564206279206120706f77657220706c616e742e602082015271222c202261747472696275746573223a205b60701b60408201526052017f7b2274726169745f74797065223a2022576174742d486f757273222c202276618152650363ab2911d160d51b6020820152602601610908916112ca565b611f4b60f21b81526002017f7b2274726169745f74797065223a202254696d657374616d70222c202276616c81526403ab2911d160dd1b6020820152602501610950916112ca565b611f4b60f21b81526002017f7b2274726169745f74797065223a20224c6f636174696f6e222c202276616c7581526432911d101160d91b6020820152602501610998916112ca565b62089f4b60ea1b81526003017f7b2274726169745f74797065223a2022506f77657220506c616e74205479706581526c111610113b30b63ab2911d101160991b6020820152602d016109e9916112ca565b61227d60f01b8152600201615d7d60f01b8152600201607d60f81b81526001010390601f19918281018252610a1e908261056e565b610a2790611a51565b6040517f646174613a6170706c69636174696f6e2f6a736f6e3b6261736536342c000000602082015291908290603d8201610a61916112ca565b039081018252610a71908261056e565b610a7a91611b2c565b600754610a86906112f7565b600755005b3461013e57600036600319011261013e576020600754604051908152f35b3461013e57602036600319011261013e576001600160a01b03610aca610324565b168015610af3576000526003602052610269604060002054604051918291829190602083019252565b60405162461bcd60e51b815260206004820152602a60248201527f4552433732313a2062616c616e636520717565727920666f7220746865207a65604482015269726f206164647265737360b01b6064820152608490fd5b3461013e576000806003193601126102f15760405190806001805490610b70826104c5565b80865292602092600181169081156102c45750600114610b9a576102698661025d8188038261056e565b9350600184527fb10e2d527612073b26eecdfd717e6a320cf44b4afac2b0732d9fcbe2b7fa0cf65b838510610bdf5750505050810160200161025d826102693861024d565b8054868601840152938201938101610bc2565b3461013e57604036600319011261013e57610c0b610324565b602435801515810361013e576001600160a01b03821691338314610c995781610c56610c679233600052600560205260406000209060018060a01b0316600052602052604060002090565b9060ff801983541691151516179055565b604051901515815233907f17307eab39ab6107e8899845ad3d59bd9653f200f220920489ca2b5937696c3190602090a3005b60405162461bcd60e51b815260206004820152601960248201527f4552433732313a20617070726f766520746f2063616c6c6572000000000000006044820152606490fd5b3461013e57608036600319011261013e57610cf7610324565b610cff61033a565b6064359167ffffffffffffffff831161013e573660238401121561013e57610d346103a79336906024816004013591016106f0565b9160443591611326565b9061020a916020815281516020820152602082015160408201526060610d72604084015160808385015260a08401906101d4565b920151906080601f19828503019101526101d4565b3461013e57602036600319011261013e5761026960406060808251610dab81610515565b60008152600060208201528184820152015260043560005260086020528060002090610e026003825193610dde85610515565b8054855260018101546020860152610df860028201610590565b8486015201610590565b60608301525191829182610d3e565b3461013e57602036600319011261013e57610269610e30600435611352565b6040519182916020835260208301906101d4565b3461013e57604036600319011261013e57602060ff610e95610e64610324565b610e6c61033a565b6001600160a01b0391821660009081526005865260408082209290931681526020919091522090565b54166040519015158152f35b6000818152600260205260409020546001600160a01b031615610ed9576000908152600460205260409020546001600160a01b031690565b60405162461bcd60e51b815260206004820152602c60248201527f4552433732313a20617070726f76656420717565727920666f72206e6f6e657860448201526b34b9ba32b73a103a37b5b2b760a11b6064820152608490fd5b15610f3a57565b60405162461bcd60e51b815260206004820152603860248201527f4552433732313a20617070726f76652063616c6c6572206973206e6f74206f7760448201527f6e6572206e6f7220617070726f76656420666f7220616c6c00000000000000006064820152608490fd5b15610fac57565b60405162461bcd60e51b815260206004820152603160248201527f4552433732313a207472616e736665722063616c6c6572206973206e6f74206f6044820152701ddb995c881b9bdc88185c1c1c9bdd9959607a1b6064820152608490fd5b6040519061101882610536565b60008252565b6000908152600260205260409020546001600160a01b0316801561103f5790565b60405162461bcd60e51b815260206004820152602960248201527f4552433732313a206f776e657220717565727920666f72206e6f6e657869737460448201526832b73a103a37b5b2b760b91b6064820152608490fd5b90601f81116110a457505050565b6000916000526020600020906020601f850160051c830194106110e2575b601f0160051c01915b8281106110d757505050565b8181556001016110cb565b90925082906110c2565b919091825167ffffffffffffffff8111610531576111148161110e84546104c5565b84611096565b602080601f83116001146111575750819061114893949560009261114c575b50508160011b916000199060031b1c19161790565b9055565b015190503880611133565b90601f1983169561116d85600052602060002090565b926000905b8882106111aa57505083600195969710611191575b505050811b019055565b015160001960f88460031b161c19169055388080611187565b80600185968294968601518155019501930190611172565b90805182556001602090602083015160018501556002840191604084015180519267ffffffffffffffff8411610531576112068461120087546104c5565b87611096565b602092601f851160011461124f57505092611243836060946105d298979460039760009261114c5750508160011b916000199060031b1c19161790565b90555b015191016110ec565b929190601f1985169061126787600052602060002090565b946000915b8383106112b357505050936105d297969360039693600193836060981061129b575b505050811b019055611246565b015160001983891b60f8161c1916905538808061128e565b84860151875595860195948101949181019161126c565b906112dd602092828151948592016101b1565b0190565b634e487b7160e01b600052601160045260246000fd5b906001820180921161130557565b6112e1565b603001908160301161130557565b906002820180921161130557565b916105d2939161134d9361133d61049384336114f8565b61134883838361164a565b611ef5565b611cb5565b6000818152600260205260409020546001600160a01b0316156113e15761138b611386826000526006602052604060002090565b610590565b9061139461100b565b8051156113dc5782516113ac575061020a9150611cd9565b61020a91506113ce6113c89360405194859360208501906112ca565b906112ca565b03601f19810183528261056e565b505090565b60405162461bcd60e51b815260206004820152603160248201527f45524337323155524953746f726167653a2055524920717565727920666f72206044820152703737b732bc34b9ba32b73a103a37b5b2b760791b6064820152608490fd5b600081815260046020526040812080546001600160a01b03191690556001600160a01b0361146d8361101e565b167f8c5be1e5ebec7d5bd14f71427d1e84f3dd0314c0f7b2291e5b200ac8c7c3b9258280a4565b600082815260046020526040902080546001600160a01b0319166001600160a01b0383161790556001600160a01b03806114cd8461101e565b169116907f8c5be1e5ebec7d5bd14f71427d1e84f3dd0314c0f7b2291e5b200ac8c7c3b925600080a4565b6000828152600260205260409020546001600160a01b0316156115895761151e8261101e565b6001600160a01b038281168282168114949091908515611571575b505050821561154757505090565b6001600160a01b0316600090815260056020526040902060ff925061156c91906103cc565b541690565b61157e9192939550610ea1565b161491388080611539565b60405162461bcd60e51b815260206004820152602c60248201527f4552433732313a206f70657261746f7220717565727920666f72206e6f6e657860448201526b34b9ba32b73a103a37b5b2b760a11b6064820152608490fd5b156115ea57565b60405162461bcd60e51b8152602060048201526024808201527f4552433732313a207472616e7366657220746f20746865207a65726f206164646044820152637265737360e01b6064820152608490fd5b60001981019190821161130557565b906116548361101e565b6001600160a01b03838116929091821683900361172d576116a3611706928216946116808615156115e3565b61168987611440565b6001600160a01b0316600090815260036020526040902090565b6116ad815461163b565b90556001600160a01b03811660009081526003602052604090206116d181546112f7565b90556116e7856000526002602052604060002090565b80546001600160a01b0319166001600160a01b03909216919091179055565b7fddf252ad1be2c89b69c2b068fc378daa952ba7f163c4a11628f55a4df523b3ef600080a4565b60405162461bcd60e51b815260206004820152602560248201527f4552433732313a207472616e736665722066726f6d20696e636f72726563742060448201526437bbb732b960d91b6064820152608490fd5b9060405161178d81610536565b600081526001600160a01b038316918215611877576000818152600260205260409020546001600160a01b031661183257838161134d946117e36105d29760018060a01b03166000526003602052604060002090565b6117ed81546112f7565b9055611807836116e7846000526002602052604060002090565b60007fddf252ad1be2c89b69c2b068fc378daa952ba7f163c4a11628f55a4df523b3ef8180a4611e33565b60405162461bcd60e51b815260206004820152601c60248201527f4552433732313a20746f6b656e20616c7265616479206d696e746564000000006044820152606490fd5b606460405162461bcd60e51b815260206004820152602060248201527f4552433732313a206d696e7420746f20746865207a65726f20616464726573736044820152fd5b60001981146113055760010190565b906118d4826106d4565b6118e1604051918261056e565b82815280926118f2601f19916106d4565b0190602036910137565b90815181101561190d570160200190565b634e487b7160e01b600052603260045260246000fd5b80156119ab576000818181805b611993575061193e816118ca565b935b61194a5750505090565b6119539061163b565b90600a9061197e61196e61196884840661130a565b60ff1690565b60f81b6001600160f81b03191690565b841a61198a84876118fc565b53049081611940565b91506119a0600a916118bb565b910480849291611930565b506040516119b881610552565b60018152600360fc1b602082015290565b604051906060820182811067ffffffffffffffff82111761053157604052604082527f6768696a6b6c6d6e6f707172737475767778797a303132333435363738392b2f6040837f4142434445464748494a4b4c4d4e4f505152535455565758595a61626364656660208201520152565b600281901b91906001600160fe1b0381160361130557565b805115611b2357611a606119c9565b611a84611a7f611a7a611a738551611318565b6003900490565b611a39565b6118ca565b9160208301918182518301915b828210611ad157505050600390510680600114611abe57600214611ab3575090565b603d90600019015390565b50603d9081600019820153600119015390565b9091936004906003809401938451600190603f9082828260121c16880101518553828282600c1c16880101518386015382828260061c1688010151600286015316850101519082015301939190611a91565b5061020a61100b565b6000818152600260205260409020549192916001600160a01b031615611c06576000526020600660205260406000209083519067ffffffffffffffff821161053157611b8282611b7c85546104c5565b85611096565b602090601f8311600114611bb55750819061114893949560009261114c5750508160011b916000199060031b1c19161790565b90601f19831695611bcb85600052602060002090565b926000905b888210611bee5750508360019596971061119157505050811b019055565b80600185968294968601518155019501930190611bd0565b60405162461bcd60e51b815260206004820152602e60248201527f45524337323155524953746f726167653a2055524920736574206f66206e6f6e60448201526d32bc34b9ba32b73a103a37b5b2b760911b6064820152608490fd5b60809060208152603260208201527f4552433732313a207472616e7366657220746f206e6f6e20455243373231526560408201527131b2b4bb32b91034b6b83632b6b2b73a32b960711b60608201520190565b15611cbc57565b60405162461bcd60e51b815280611cd560048201611c62565b0390fd5b6000818152600260205260409020546001600160a01b031615611d3557611cfe61100b565b805190919015611d2b576113c8916113ce611d1b61020a93611923565b60405194859360208501906112ca565b505061020a61100b565b60405162461bcd60e51b815260206004820152602f60248201527f4552433732314d657461646174613a2055524920717565727920666f72206e6f60448201526e3732bc34b9ba32b73a103a37b5b2b760891b6064820152608490fd5b9081602091031261013e575161020a8161012c565b61020a939260809260018060a01b0316825260006020830152604082015281606082015201906101d4565b6001600160a01b03918216815291166020820152604081019190915260806060820181905261020a929101906101d4565b3d15611e2e573d90611e14826106d4565b91611e22604051938461056e565b82523d6000602084013e565b606090565b909190803b15611eed57611e65602091600093604051948580948193630a85bd0160e11b998a84523360048501611da7565b03926001600160a01b03165af160009181611ebc575b50611eae57611e88611e03565b80519081611ea95760405162461bcd60e51b815280611cd560048201611c62565b602001fd5b6001600160e01b0319161490565b611edf91925060203d602011611ee6575b611ed7818361056e565b810190611d92565b9038611e7b565b503d611ecd565b505050600190565b92909190823b15611f2857611e65926020926000604051809681958294630a85bd0160e11b9a8b85523360048601611dd2565b5050505060019056fea26469706673582212206332b24622079bfa31b7449d778255ef64a15fc6d14f452a0f5429fe9f416a4d64736f6c63430008180033",
  "bytecodeSha1": "827d83ec05a22d2b666f23805d4b67112e8fda92",
  "compiler": {
    "evm_version": "istanbul",
    "optimizer": {
      "enabled": true,
      "runs": 200
    },
    "version": "0.8.24+commit.e11b9ed9"
  },
  "contractName": "EnergyD",
  "language": "Solidity",
  "natspec": {
    "kind": "dev",
    "methods": {
      "approve(address,uint256)": {
        "details": "See {IERC721-approve}."
      },
      "balanceOf(address)": {
        "details": "See {IERC721-balanceOf}."
      },
      "getApproved(uint256)": {
        "details": "See {IERC721-getApproved}."
      },
      "isApprovedForAll(address,address)": {
        "details": "See {IERC721-isApprovedForAll}."
      },
      "name()": {
        "details": "See {IERC721Metadata-name}."
      },
      "ownerOf(uint256)": {
        "details": "See {IERC721-ownerOf}."
      },
      "safeTransferFrom(address,address,uint256)": {
        "details": "See {IERC721-safeTransferFrom}."
      },
      "safeTransferFrom(address,address,uint256,bytes)": {
        "details": "See {IERC721-safeTransferFrom}."
      },
      "setApprovalForAll(address,bool)": {
        "details": "See {IERC721-setApprovalForAll}."
      },
      "supportsInterface(bytes4)": {
        "details": "See {IERC165-supportsInterface}."
      },
      "symbol()": {
        "details": "See {IERC721Metadata-symbol}."
      },
      "tokenURI(uint256)": {
        "details": "See {IERC721Metadata-tokenURI}."
      },
      "transferFrom(address,address,uint256)": {
        "details": "See {IERC721-transferFrom}."
      }
    },
    "version": 1
  },
  "opcodes": "PUSH1 0x80 PUSH1 0x40 MSTORE PUSH1 0x4 CALLDATASIZE LT ISZERO PUSH2 0x12 JUMPI PUSH1 0x0 DUP1 REVERT JUMPDEST PUSH1 0x0 CALLDATALOAD PUSH1 0xE0 SHR DUP1 PUSH4 0x1FFC9A7 EQ PUSH2 0x127 JUMPI DUP1 PUSH4 0x6FDDE03 EQ PUSH2 0x122 JUMPI DUP1 PUSH4 0x81812FC EQ PUSH2 0x11D JUMPI DUP1 PUSH4 0x95EA7B3 EQ PUSH2 0x118 JUMPI DUP1 PUSH4 0x23B872DD EQ PUSH2 0x113 JUMPI DUP1 PUSH4 0x42842E0E EQ PUSH2 0x10E JUMPI DUP1 PUSH4 0x61F2C1E8 EQ PUSH2 0x109 JUMPI DUP1 PUSH4 0x6352211E EQ PUSH2 0x104 JUMPI DUP1 PUSH4 0x6D013618 EQ PUSH2 0xFF JUMPI DUP1 PUSH4 0x6E02007D EQ PUSH2 0xFA JUMPI DUP1 PUSH4 0x70A08231 EQ PUSH2 0xF5 JUMPI DUP1 PUSH4 0x95D89B41 EQ PUSH2 0xF0 JUMPI DUP1 PUSH4 0xA22CB465 EQ PUSH2 0xEB JUMPI DUP1 PUSH4 0xB88D4FDE EQ PUSH2 0xE6 JUMPI DUP1 PUSH4 0xBEB8C972 EQ PUSH2 0xE1 JUMPI DUP1 PUSH4 0xC87B56DD EQ PUSH2 0xDC JUMPI PUSH4 0xE985E9C5 EQ PUSH2 0xD7 JUMPI PUSH1 0x0 DUP1 REVERT JUMPDEST PUSH2 0xE44 JUMP JUMPDEST PUSH2 0xE11 JUMP JUMPDEST PUSH2 0xD87 JUMP JUMPDEST PUSH2 0xCDE JUMP JUMPDEST PUSH2 0xBF2 JUMP JUMPDEST PUSH2 0xB4B JUMP JUMPDEST PUSH2 0xAA9 JUMP JUMPDEST PUSH2 0xA8B JUMP JUMPDEST PUSH2 0x742 JUMP JUMPDEST PUSH2 0x6A9 JUMP JUMPDEST PUSH2 0x635 JUMP JUMPDEST PUSH2 0x49D JUMP JUMPDEST PUSH2 0x474 JUMP JUMPDEST PUSH2 0x350 JUMP JUMPDEST PUSH2 0x2F4 JUMP JUMPDEST PUSH2 0x20D JUMP JUMPDEST PUSH2 0x143 JUMP JUMPDEST PUSH1 0x1 PUSH1 0x1 PUSH1 0xE0 SHL SUB NOT DUP2 AND SUB PUSH2 0x13E JUMPI JUMP JUMPDEST PUSH1 0x0 DUP1 REVERT JUMPDEST CALLVALUE PUSH2 0x13E JUMPI PUSH1 0x20 CALLDATASIZE PUSH1 0x3 NOT ADD SLT PUSH2 0x13E JUMPI PUSH1 0x20 PUSH1 0x4 CALLDATALOAD PUSH2 0x162 DUP2 PUSH2 0x12C JUMP JUMPDEST PUSH4 0xFFFFFFFF PUSH1 0xE0 SHL AND PUSH4 0x80AC58CD PUSH1 0xE0 SHL DUP2 EQ SWAP1 DUP2 ISZERO PUSH2 0x1A0 JUMPI JUMPDEST DUP2 ISZERO PUSH2 0x18F JUMPI JUMPDEST POP PUSH1 0x40 MLOAD SWAP1 ISZERO ISZERO DUP2 MSTORE RETURN JUMPDEST PUSH4 0x1FFC9A7 PUSH1 0xE0 SHL EQ SWAP1 POP CODESIZE PUSH2 0x184 JUMP JUMPDEST PUSH4 0x5B5E139F PUSH1 0xE0 SHL DUP2 EQ SWAP2 POP PUSH2 0x17D JUMP JUMPDEST PUSH1 0x0 JUMPDEST DUP4 DUP2 LT PUSH2 0x1C4 JUMPI POP POP PUSH1 0x0 SWAP2 ADD MSTORE JUMP JUMPDEST DUP2 DUP2 ADD MLOAD DUP4 DUP3 ADD MSTORE PUSH1 0x20 ADD PUSH2 0x1B4 JUMP JUMPDEST SWAP1 PUSH1 0x20 SWAP2 PUSH2 0x1ED DUP2 MLOAD DUP1 SWAP3 DUP2 DUP6 MSTORE DUP6 DUP1 DUP7 ADD SWAP2 ADD PUSH2 0x1B1 JUMP JUMPDEST PUSH1 0x1F ADD PUSH1 0x1F NOT AND ADD ADD SWAP1 JUMP JUMPDEST SWAP1 PUSH1 0x20 PUSH2 0x20A SWAP3 DUP2 DUP2 MSTORE ADD SWAP1 PUSH2 0x1D4 JUMP JUMPDEST SWAP1 JUMP JUMPDEST CALLVALUE PUSH2 0x13E JUMPI PUSH1 0x0 DUP1 PUSH1 0x3 NOT CALLDATASIZE ADD SLT PUSH2 0x2F1 JUMPI PUSH1 0x40 MLOAD SWAP1 DUP1 DUP1 SLOAD SWAP1 PUSH2 0x230 DUP3 PUSH2 0x4C5 JUMP JUMPDEST DUP1 DUP6 MSTORE SWAP2 PUSH1 0x20 SWAP2 PUSH1 0x1 SWAP2 DUP3 DUP2 AND SWAP1 DUP2 ISZERO PUSH2 0x2C4 JUMPI POP PUSH1 0x1 EQ PUSH2 0x26D JUMPI JUMPDEST PUSH2 0x269 DUP7 PUSH2 0x25D DUP2 DUP9 SUB DUP3 PUSH2 0x56E JUMP JUMPDEST PUSH1 0x40 MLOAD SWAP2 DUP3 SWAP2 DUP3 PUSH2 0x1F9 JUMP JUMPDEST SUB SWAP1 RETURN JUMPDEST DUP1 DUP1 SWAP6 POP MSTORE PUSH32 0x290DECD9548B62A8D60345A988386FC84BA6BC95484008F6362F93160EF3E563 JUMPDEST DUP4 DUP6 LT PUSH2 0x2B1 JUMPI POP POP POP POP DUP2 ADD PUSH1 0x20 ADD PUSH2 0x25D DUP3 PUSH2 0x269 CODESIZE PUSH2 0x24D JUMP JUMPDEST DUP1 SLOAD DUP7 DUP7 ADD DUP5 ADD MSTORE SWAP4 DUP3 ADD SWAP4 DUP2 ADD PUSH2 0x294 JUMP JUMPDEST SWAP1 POP DUP7 SWAP6 POP PUSH2 0x269 SWAP7 SWAP4 POP PUSH1 0x20 SWAP3 POP PUSH2 0x25D SWAP5 SWAP2 POP PUSH1 0xFF NOT AND DUP3 DUP5 ADD MSTORE ISZERO ISZERO PUSH1 0x5 SHL DUP3 ADD ADD SWAP3 SWAP4 CODESIZE PUSH2 0x24D JUMP JUMPDEST DUP1 REVERT JUMPDEST CALLVALUE PUSH2 0x13E JUMPI PUSH1 0x20 CALLDATASIZE PUSH1 0x3 NOT ADD SLT PUSH2 0x13E JUMPI PUSH1 0x20 PUSH2 0x312 PUSH1 0x4 CALLDATALOAD PUSH2 0xEA1 JUMP JUMPDEST PUSH1 0x40 MLOAD PUSH1 0x1 PUSH1 0x1 PUSH1 0xA0 SHL SUB SWAP1 SWAP2 AND DUP2 MSTORE RETURN JUMPDEST PUSH1 0x4 CALLDATALOAD SWAP1 PUSH1 0x1 PUSH1 0x1 PUSH1 0xA0 SHL SUB DUP3 AND DUP3 SUB PUSH2 0x13E JUMPI JUMP JUMPDEST PUSH1 0x24 CALLDATALOAD SWAP1 PUSH1 0x1 PUSH1 0x1 PUSH1 0xA0 SHL SUB DUP3 AND DUP3 SUB PUSH2 0x13E JUMPI JUMP JUMPDEST CALLVALUE PUSH2 0x13E JUMPI PUSH1 0x40 CALLDATASIZE PUSH1 0x3 NOT ADD SLT PUSH2 0x13E JUMPI PUSH2 0x369 PUSH2 0x324 JUMP JUMPDEST PUSH1 0x24 CALLDATALOAD PUSH2 0x375 DUP2 PUSH2 0x101E JUMP JUMPDEST SWAP2 PUSH1 0x1 PUSH1 0x1 PUSH1 0xA0 SHL SUB DUP1 DUP5 AND SWAP1 DUP3 AND DUP2 EQ PUSH2 0x3F0 JUMPI PUSH2 0x3A7 SWAP4 PUSH2 0x3A2 SWAP2 CALLER EQ SWAP1 DUP2 ISZERO PUSH2 0x3A9 JUMPI JUMPDEST POP PUSH2 0xF33 JUMP JUMPDEST PUSH2 0x1494 JUMP JUMPDEST STOP JUMPDEST PUSH1 0x1 PUSH1 0x1 PUSH1 0xA0 SHL SUB AND PUSH1 0x0 SWAP1 DUP2 MSTORE PUSH1 0x5 PUSH1 0x20 MSTORE PUSH1 0x40 SWAP1 KECCAK256 PUSH2 0x3EA SWAP2 POP PUSH2 0x3E3 SWAP1 CALLER SWAP1 JUMPDEST SWAP1 PUSH1 0x1 DUP1 PUSH1 0xA0 SHL SUB AND PUSH1 0x0 MSTORE PUSH1 0x20 MSTORE PUSH1 0x40 PUSH1 0x0 KECCAK256 SWAP1 JUMP JUMPDEST SLOAD PUSH1 0xFF AND SWAP1 JUMP JUMPDEST CODESIZE PUSH2 0x39C JUMP JUMPDEST PUSH1 0x40 MLOAD PUSH3 0x461BCD PUSH1 0xE5 SHL DUP2 MSTORE PUSH1 0x20 PUSH1 0x4 DUP3 ADD MSTORE PUSH1 0x21 PUSH1 0x24 DUP3 ADD MSTORE PUSH32 0x4552433732313A20617070726F76616C20746F2063757272656E74206F776E65 PUSH1 0x44 DUP3 ADD MSTORE PUSH1 0x39 PUSH1 0xF9 SHL PUSH1 0x64 DUP3 ADD MSTORE PUSH1 0x84 SWAP1 REVERT JUMPDEST PUSH1 0x60 SWAP1 PUSH1 0x3 NOT ADD SLT PUSH2 0x13E JUMPI PUSH1 0x1 PUSH1 0x1 PUSH1 0xA0 SHL SUB SWAP1 PUSH1 0x4 CALLDATALOAD DUP3 DUP2 AND DUP2 SUB PUSH2 0x13E JUMPI SWAP2 PUSH1 0x24 CALLDATALOAD SWAP1 DUP2 AND DUP2 SUB PUSH2 0x13E JUMPI SWAP1 PUSH1 0x44 CALLDATALOAD SWAP1 JUMP JUMPDEST CALLVALUE PUSH2 0x13E JUMPI PUSH2 0x3A7 PUSH2 0x485 CALLDATASIZE PUSH2 0x43F JUMP JUMPDEST SWAP2 PUSH2 0x498 PUSH2 0x493 DUP5 CALLER PUSH2 0x14F8 JUMP JUMPDEST PUSH2 0xFA5 JUMP JUMPDEST PUSH2 0x164A JUMP JUMPDEST CALLVALUE PUSH2 0x13E JUMPI PUSH2 0x3A7 PUSH2 0x4AE CALLDATASIZE PUSH2 0x43F JUMP JUMPDEST SWAP1 PUSH1 0x40 MLOAD SWAP3 PUSH2 0x4BC DUP5 PUSH2 0x536 JUMP JUMPDEST PUSH1 0x0 DUP5 MSTORE PUSH2 0x1326 JUMP JUMPDEST SWAP1 PUSH1 0x1 DUP3 DUP2 SHR SWAP3 AND DUP1 ISZERO PUSH2 0x4F5 JUMPI JUMPDEST PUSH1 0x20 DUP4 LT EQ PUSH2 0x4DF JUMPI JUMP JUMPDEST PUSH4 0x4E487B71 PUSH1 0xE0 SHL PUSH1 0x0 MSTORE PUSH1 0x22 PUSH1 0x4 MSTORE PUSH1 0x24 PUSH1 0x0 REVERT JUMPDEST SWAP2 PUSH1 0x7F AND SWAP2 PUSH2 0x4D4 JUMP JUMPDEST PUSH4 0x4E487B71 PUSH1 0xE0 SHL PUSH1 0x0 MSTORE PUSH1 0x41 PUSH1 0x4 MSTORE PUSH1 0x24 PUSH1 0x0 REVERT JUMPDEST PUSH1 0x80 DUP2 ADD SWAP1 DUP2 LT PUSH8 0xFFFFFFFFFFFFFFFF DUP3 GT OR PUSH2 0x531 JUMPI PUSH1 0x40 MSTORE JUMP JUMPDEST PUSH2 0x4FF JUMP JUMPDEST PUSH1 0x20 DUP2 ADD SWAP1 DUP2 LT PUSH8 0xFFFFFFFFFFFFFFFF DUP3 GT OR PUSH2 0x531 JUMPI PUSH1 0x40 MSTORE JUMP JUMPDEST PUSH1 0x40 DUP2 ADD SWAP1 DUP2 LT PUSH8 0xFFFFFFFFFFFFFFFF DUP3 GT OR PUSH2 0x531 JUMPI PUSH1 0x40 MSTORE JUMP JUMPDEST SWAP1 PUSH1 0x1F DUP1 NOT SWAP2 ADD AND DUP2 ADD SWAP1 DUP2 LT PUSH8 0xFFFFFFFFFFFFFFFF DUP3 GT OR PUSH2 0x531 JUMPI PUSH1 0x40 MSTORE JUMP JUMPDEST SWAP1 PUSH1 0x40 MLOAD SWAP2 DUP3 PUSH1 0x0 DUP3 SLOAD PUSH2 0x5A3 DUP2 PUSH2 0x4C5 JUMP JUMPDEST SWAP1 DUP2 DUP5 MSTORE PUSH1 0x20 SWAP5 PUSH1 0x1 SWAP2 PUSH1 0x1 DUP2 AND SWAP1 DUP2 PUSH1 0x0 EQ PUSH2 0x613 JUMPI POP PUSH1 0x1 EQ PUSH2 0x5D4 JUMPI JUMPDEST POP POP POP PUSH2 0x5D2 SWAP3 POP SUB DUP4 PUSH2 0x56E JUMP JUMPDEST JUMP JUMPDEST PUSH1 0x0 SWAP1 DUP2 MSTORE DUP6 DUP2 KECCAK256 SWAP6 SWAP4 POP SWAP2 SWAP1 JUMPDEST DUP2 DUP4 LT PUSH2 0x5FB JUMPI POP POP PUSH2 0x5D2 SWAP4 POP DUP3 ADD ADD CODESIZE DUP1 DUP1 PUSH2 0x5C3 JUMP JUMPDEST DUP6 SLOAD DUP9 DUP5 ADD DUP6 ADD MSTORE SWAP5 DUP6 ADD SWAP5 DUP8 SWAP5 POP SWAP2 DUP4 ADD SWAP2 PUSH2 0x5E2 JUMP JUMPDEST SWAP3 POP POP POP PUSH2 0x5D2 SWAP5 SWAP3 POP PUSH1 0xFF NOT AND DUP3 DUP5 ADD MSTORE ISZERO ISZERO PUSH1 0x5 SHL DUP3 ADD ADD CODESIZE DUP1 DUP1 PUSH2 0x5C3 JUMP JUMPDEST CALLVALUE PUSH2 0x13E JUMPI PUSH1 0x20 CALLDATASIZE PUSH1 0x3 NOT ADD SLT PUSH2 0x13E JUMPI PUSH1 0x4 CALLDATALOAD PUSH1 0x0 MSTORE PUSH1 0x8 PUSH1 0x20 MSTORE PUSH1 0x40 PUSH1 0x0 KECCAK256 DUP1 SLOAD PUSH2 0x269 PUSH1 0x1 DUP4 ADD SLOAD SWAP3 PUSH2 0x69B PUSH2 0x67C PUSH1 0x3 PUSH2 0x675 PUSH1 0x2 DUP6 ADD PUSH2 0x590 JUMP JUMPDEST SWAP4 ADD PUSH2 0x590 JUMP JUMPDEST SWAP2 PUSH1 0x40 MLOAD SWAP6 DUP7 SWAP6 DUP7 MSTORE PUSH1 0x20 DUP7 ADD MSTORE PUSH1 0x80 PUSH1 0x40 DUP7 ADD MSTORE PUSH1 0x80 DUP6 ADD SWAP1 PUSH2 0x1D4 JUMP JUMPDEST SWAP1 DUP4 DUP3 SUB PUSH1 0x60 DUP6 ADD MSTORE PUSH2 0x1D4 JUMP JUMPDEST CALLVALUE PUSH2 0x13E JUMPI PUSH1 0x20 CALLDATASIZE PUSH1 0x3 NOT ADD SLT PUSH2 0x13E JUMPI PUSH1 0x20 PUSH2 0x312 PUSH1 0x4 CALLDATALOAD PUSH2 0x101E JUMP JUMPDEST PUSH1 0x40 MLOAD SWAP1 PUSH2 0x5D2 DUP3 PUSH2 0x515 JUMP JUMPDEST PUSH8 0xFFFFFFFFFFFFFFFF DUP2 GT PUSH2 0x531 JUMPI PUSH1 0x1F ADD PUSH1 0x1F NOT AND PUSH1 0x20 ADD SWAP1 JUMP JUMPDEST SWAP3 SWAP2 SWAP3 PUSH2 0x6FC DUP3 PUSH2 0x6D4 JUMP JUMPDEST SWAP2 PUSH2 0x70A PUSH1 0x40 MLOAD SWAP4 DUP5 PUSH2 0x56E JUMP JUMPDEST DUP3 SWAP5 DUP2 DUP5 MSTORE DUP2 DUP4 ADD GT PUSH2 0x13E JUMPI DUP3 DUP2 PUSH1 0x20 SWAP4 DUP5 PUSH1 0x0 SWAP7 ADD CALLDATACOPY ADD ADD MSTORE JUMP JUMPDEST SWAP1 DUP1 PUSH1 0x1F DUP4 ADD SLT ISZERO PUSH2 0x13E JUMPI DUP2 PUSH1 0x20 PUSH2 0x20A SWAP4 CALLDATALOAD SWAP2 ADD PUSH2 0x6F0 JUMP JUMPDEST CALLVALUE PUSH2 0x13E JUMPI PUSH1 0xA0 CALLDATASIZE PUSH1 0x3 NOT ADD SLT PUSH2 0x13E JUMPI PUSH2 0x75B PUSH2 0x324 JUMP JUMPDEST PUSH1 0x24 CALLDATALOAD PUSH1 0x44 CALLDATALOAD SWAP1 PUSH1 0x64 CALLDATALOAD SWAP3 PUSH8 0xFFFFFFFFFFFFFFFF SWAP4 DUP5 DUP2 GT PUSH2 0x13E JUMPI PUSH2 0x785 SWAP1 CALLDATASIZE SWAP1 PUSH1 0x4 ADD PUSH2 0x727 JUMP JUMPDEST SWAP4 PUSH1 0x84 CALLDATALOAD SWAP1 DUP2 GT PUSH2 0x13E JUMPI PUSH2 0x79E SWAP1 CALLDATASIZE SWAP1 PUSH1 0x4 ADD PUSH2 0x727 JUMP JUMPDEST SWAP1 PUSH1 0x7 SLOAD PUSH2 0x7AB SWAP2 PUSH2 0x1780 JUMP JUMPDEST PUSH1 0x7 SLOAD DUP1 PUSH32 0x8EA46E27212145880DF5C7CB43BF866323401FDF3376C1F1D1E39C19FF1DECF9 PUSH1 0x0 DUP1 LOG2 PUSH2 0x7DC PUSH2 0x6C7 JUMP JUMPDEST SWAP1 DUP4 DUP3 MSTORE DUP5 PUSH1 0x20 DUP4 ADD MSTORE DUP6 PUSH1 0x40 DUP4 ADD MSTORE DUP3 PUSH1 0x60 DUP4 ADD MSTORE PUSH2 0x806 SWAP1 PUSH1 0x0 MSTORE PUSH1 0x8 PUSH1 0x20 MSTORE PUSH1 0x40 PUSH1 0x0 KECCAK256 SWAP1 JUMP JUMPDEST SWAP1 PUSH2 0x810 SWAP2 PUSH2 0x11C2 JUMP JUMPDEST PUSH1 0x7 SLOAD SWAP4 PUSH2 0x81D DUP6 PUSH2 0x1923 JUMP JUMPDEST SWAP3 PUSH2 0x827 SWAP1 PUSH2 0x1923 JUMP JUMPDEST SWAP4 PUSH2 0x831 SWAP1 PUSH2 0x1923 JUMP JUMPDEST PUSH1 0x40 MLOAD PUSH22 0x7B226E616D65223A2022456E65726779204E46542023 PUSH1 0x50 SHL PUSH1 0x20 DUP3 ADD MSTORE SWAP5 DUP6 SWAP5 PUSH1 0x36 DUP7 ADD PUSH2 0x863 SWAP2 PUSH2 0x12CA JUMP JUMPDEST PUSH32 0x222C20226465736372697074696F6E223A2022526570726573656E747320656E DUP2 MSTORE PUSH32 0x657267792067656E657261746564206279206120706F77657220706C616E742E PUSH1 0x20 DUP3 ADD MSTORE PUSH18 0x222C202261747472696275746573223A205B PUSH1 0x70 SHL PUSH1 0x40 DUP3 ADD MSTORE PUSH1 0x52 ADD PUSH32 0x7B2274726169745F74797065223A2022576174742D486F757273222C20227661 DUP2 MSTORE PUSH6 0x363AB2911D1 PUSH1 0xD5 SHL PUSH1 0x20 DUP3 ADD MSTORE PUSH1 0x26 ADD PUSH2 0x908 SWAP2 PUSH2 0x12CA JUMP JUMPDEST PUSH2 0x1F4B PUSH1 0xF2 SHL DUP2 MSTORE PUSH1 0x2 ADD PUSH32 0x7B2274726169745F74797065223A202254696D657374616D70222C202276616C DUP2 MSTORE PUSH5 0x3AB2911D1 PUSH1 0xDD SHL PUSH1 0x20 DUP3 ADD MSTORE PUSH1 0x25 ADD PUSH2 0x950 SWAP2 PUSH2 0x12CA JUMP JUMPDEST PUSH2 0x1F4B PUSH1 0xF2 SHL DUP2 MSTORE PUSH1 0x2 ADD PUSH32 0x7B2274726169745F74797065223A20224C6F636174696F6E222C202276616C75 DUP2 MSTORE PUSH5 0x32911D1011 PUSH1 0xD9 SHL PUSH1 0x20 DUP3 ADD MSTORE PUSH1 0x25 ADD PUSH2 0x998 SWAP2 PUSH2 0x12CA JUMP JUMPDEST PUSH3 0x89F4B PUSH1 0xEA SHL DUP2 MSTORE PUSH1 0x3 ADD PUSH32 0x7B2274726169745F74797065223A2022506F77657220506C616E742054797065 DUP2 MSTORE PUSH13 0x111610113B30B63AB2911D1011 PUSH1 0x99 SHL PUSH1 0x20 DUP3 ADD MSTORE PUSH1 0x2D ADD PUSH2 0x9E9 SWAP2 PUSH2 0x12CA JUMP JUMPDEST PUSH2 0x227D PUSH1 0xF0 SHL DUP2 MSTORE PUSH1 0x2 ADD PUSH2 0x5D7D PUSH1 0xF0 SHL DUP2 MSTORE PUSH1 0x2 ADD PUSH1 0x7D PUSH1 0xF8 SHL DUP2 MSTORE PUSH1 0x1 ADD SUB SWAP1 PUSH1 0x1F NOT SWAP2 DUP3 DUP2 ADD DUP3 MSTORE PUSH2 0xA1E SWAP1 DUP3 PUSH2 0x56E JUMP JUMPDEST PUSH2 0xA27 SWAP1 PUSH2 0x1A51 JUMP JUMPDEST PUSH1 0x40 MLOAD PUSH32 0x646174613A6170706C69636174696F6E2F6A736F6E3B6261736536342C000000 PUSH1 0x20 DUP3 ADD MSTORE SWAP2 SWAP1 DUP3 SWAP1 PUSH1 0x3D DUP3 ADD PUSH2 0xA61 SWAP2 PUSH2 0x12CA JUMP JUMPDEST SUB SWAP1 DUP2 ADD DUP3 MSTORE PUSH2 0xA71 SWAP1 DUP3 PUSH2 0x56E JUMP JUMPDEST PUSH2 0xA7A SWAP2 PUSH2 0x1B2C JUMP JUMPDEST PUSH1 0x7 SLOAD PUSH2 0xA86 SWAP1 PUSH2 0x12F7 JUMP JUMPDEST PUSH1 0x7 SSTORE STOP JUMPDEST CALLVALUE PUSH2 0x13E JUMPI PUSH1 0x0 CALLDATASIZE PUSH1 0x3 NOT ADD SLT PUSH2 0x13E JUMPI PUSH1 0x20 PUSH1 0x7 SLOAD PUSH1 0x40 MLOAD SWAP1 DUP2 MSTORE RETURN JUMPDEST CALLVALUE PUSH2 0x13E JUMPI PUSH1 0x20 CALLDATASIZE PUSH1 0x3 NOT ADD SLT PUSH2 0x13E JUMPI PUSH1 0x1 PUSH1 0x1 PUSH1 0xA0 SHL SUB PUSH2 0xACA PUSH2 0x324 JUMP JUMPDEST AND DUP1 ISZERO PUSH2 0xAF3 JUMPI PUSH1 0x0 MSTORE PUSH1 0x3 PUSH1 0x20 MSTORE PUSH2 0x269 PUSH1 0x40 PUSH1 0x0 KECCAK256 SLOAD PUSH1 0x40 MLOAD SWAP2 DUP3 SWAP2 DUP3 SWAP2 SWAP1 PUSH1 0x20 DUP4 ADD SWAP3 MSTORE JUMP JUMPDEST PUSH1 0x40 MLOAD PUSH3 0x461BCD PUSH1 0xE5 SHL DUP2 MSTORE PUSH1 0x20 PUSH1 0x4 DUP3 ADD MSTORE PUSH1 0x2A PUSH1 0x24 DUP3 ADD MSTORE PUSH32 0x4552433732313A2062616C616E636520717565727920666F7220746865207A65 PUSH1 0x44 DUP3 ADD MSTORE PUSH10 0x726F2061646472657373 PUSH1 0xB0 SHL PUSH1 0x64 DUP3 ADD MSTORE PUSH1 0x84 SWAP1 REVERT JUMPDEST CALLVALUE PUSH2 0x13E JUMPI PUSH1 0x0 DUP1 PUSH1 0x3 NOT CALLDATASIZE ADD SLT PUSH2 0x2F1 JUMPI PUSH1 0x40 MLOAD SWAP1 DUP1 PUSH1 0x1 DUP1 SLOAD SWAP1 PUSH2 0xB70 DUP3 PUSH2 0x4C5 JUMP JUMPDEST DUP1 DUP7 MSTORE SWAP3 PUSH1 0x20 SWAP3 PUSH1 0x1 DUP2 AND SWAP1 DUP2 ISZERO PUSH2 0x2C4 JUMPI POP PUSH1 0x1 EQ PUSH2 0xB9A JUMPI PUSH2 0x269 DUP7 PUSH2 0x25D DUP2 DUP9 SUB DUP3 PUSH2 0x56E JUMP JUMPDEST SWAP4 POP PUSH1 0x1 DUP5 MSTORE PUSH32 0xB10E2D527612073B26EECDFD717E6A320CF44B4AFAC2B0732D9FCBE2B7FA0CF6 JUMPDEST DUP4 DUP6 LT PUSH2 0xBDF JUMPI POP POP POP POP DUP2 ADD PUSH1 0x20 ADD PUSH2 0x25D DUP3 PUSH2 0x269 CODESIZE PUSH2 0x24D JUMP JUMPDEST DUP1 SLOAD DUP7 DUP7 ADD DUP5 ADD MSTORE SWAP4 DUP3 ADD SWAP4 DUP2 ADD PUSH2 0xBC2 JUMP JUMPDEST CALLVALUE PUSH2 0x13E JUMPI PUSH1 0x40 CALLDATASIZE PUSH1 0x3 NOT ADD SLT PUSH2 0x13E JUMPI PUSH2 0xC0B PUSH2 0x324 JUMP JUMPDEST PUSH1 0x24 CALLDATALOAD DUP1 ISZERO ISZERO DUP2 SUB PUSH2 0x13E JUMPI PUSH1 0x1 PUSH1 0x1 PUSH1 0xA0 SHL SUB DUP3 AND SWAP2 CALLER DUP4 EQ PUSH2 0xC99 JUMPI DUP2 PUSH2 0xC56 PUSH2 0xC67 SWAP3 CALLER PUSH1 0x0 MSTORE PUSH1 0x5 PUSH1 0x20 MSTORE PUSH1 0x40 PUSH1 0x0 KECCAK256 SWAP1 PUSH1 0x1 DUP1 PUSH1 0xA0 SHL SUB AND PUSH1 0x0 MSTORE PUSH1 0x20 MSTORE PUSH1 0x40 PUSH1 0x0 KECCAK256 SWAP1 JUMP JUMPDEST SWAP1 PUSH1 0xFF DUP1 NOT DUP4 SLOAD AND SWAP2 ISZERO ISZERO AND OR SWAP1 SSTORE JUMP JUMPDEST PUSH1 0x40 MLOAD SWAP1 ISZERO ISZERO DUP2 MSTORE CALLER SWAP1 PUSH32 0x17307EAB39AB6107E8899845AD3D59BD9653F200F220920489CA2B5937696C31 SWAP1 PUSH1 0x20 SWAP1 LOG3 STOP JUMPDEST PUSH1 0x40 MLOAD PUSH3 0x461BCD PUSH1 0xE5 SHL DUP2 MSTORE PUSH1 0x20 PUSH1 0x4 DUP3 ADD MSTORE PUSH1 0x19 PUSH1 0x24 DUP3 ADD MSTORE PUSH32 0x4552433732313A20617070726F766520746F2063616C6C657200000000000000 PUSH1 0x44 DUP3 ADD MSTORE PUSH1 0x64 SWAP1 REVERT JUMPDEST CALLVALUE PUSH2 0x13E JUMPI PUSH1 0x80 CALLDATASIZE PUSH1 0x3 NOT ADD SLT PUSH2 0x13E JUMPI PUSH2 0xCF7 PUSH2 0x324 JUMP JUMPDEST PUSH2 0xCFF PUSH2 0x33A JUMP JUMPDEST PUSH1 0x64 CALLDATALOAD SWAP2 PUSH8 0xFFFFFFFFFFFFFFFF DUP4 GT PUSH2 0x13E JUMPI CALLDATASIZE PUSH1 0x23 DUP5 ADD SLT ISZERO PUSH2 0x13E JUMPI PUSH2 0xD34 PUSH2 0x3A7 SWAP4 CALLDATASIZE SWAP1 PUSH1 0x24 DUP2 PUSH1 0x4 ADD CALLDATALOAD SWAP2 ADD PUSH2 0x6F0 JUMP JUMPDEST SWAP2 PUSH1 0x44 CALLDATALOAD SWAP2 PUSH2 0x1326 JUMP JUMPDEST SWAP1 PUSH2 0x20A SWAP2 PUSH1 0x20 DUP2 MSTORE DUP2 MLOAD PUSH1 0x20 DUP3 ADD MSTORE PUSH1 0x20 DUP3 ADD MLOAD PUSH1 0x40 DUP3 ADD MSTORE PUSH1 0x60 PUSH2 0xD72 PUSH1 0x40 DUP5 ADD MLOAD PUSH1 0x80 DUP4 DUP6 ADD MSTORE PUSH1 0xA0 DUP5 ADD SWAP1 PUSH2 0x1D4 JUMP JUMPDEST SWAP3 ADD MLOAD SWAP1 PUSH1 0x80 PUSH1 0x1F NOT DUP3 DUP6 SUB ADD SWAP2 ADD MSTORE PUSH2 0x1D4 JUMP JUMPDEST CALLVALUE PUSH2 0x13E JUMPI PUSH1 0x20 CALLDATASIZE PUSH1 0x3 NOT ADD SLT PUSH2 0x13E JUMPI PUSH2 0x269 PUSH1 0x40 PUSH1 0x60 DUP1 DUP3 MLOAD PUSH2 0xDAB DUP2 PUSH2 0x515 JUMP JUMPDEST PUSH1 0x0 DUP2 MSTORE PUSH1 0x0 PUSH1 0x20 DUP3 ADD MSTORE DUP2 DUP5 DUP3 ADD MSTORE ADD MSTORE PUSH1 0x4 CALLDATALOAD PUSH1 0x0 MSTORE PUSH1 0x8 PUSH1 0x20 MSTORE DUP1 PUSH1 0x0 KECCAK256 SWAP1 PUSH2 0xE02 PUSH1 0x3 DUP3 MLOAD SWAP4 PUSH2 0xDDE DUP6 PUSH2 0x515 JUMP JUMPDEST DUP1 SLOAD DUP6 MSTORE PUSH1 0x1 DUP2 ADD SLOAD PUSH1 0x20 DUP7 ADD MSTORE PUSH2 0xDF8 PUSH1 0x2 DUP3 ADD PUSH2 0x590 JUMP JUMPDEST DUP5 DUP7 ADD MSTORE ADD PUSH2 0x590 JUMP JUMPDEST PUSH1 0x60 DUP4 ADD MSTORE MLOAD SWAP2 DUP3 SWAP2 DUP3 PUSH2 0xD3E JUMP JUMPDEST CALLVALUE PUSH2 0x13E JUMPI PUSH1 0x20 CALLDATASIZE PUSH1 0x3 NOT ADD SLT PUSH2 0x13E JUMPI PUSH2 0x269 PUSH2 0xE30 PUSH1 0x4 CALLDATALOAD PUSH2 0x1352 JUMP JUMPDEST PUSH1 0x40 MLOAD SWAP2 DUP3 SWAP2 PUSH1 0x20 DUP4 MSTORE PUSH1 0x20 DUP4 ADD SWAP1 PUSH2 0x1D4 JUMP JUMPDEST CALLVALUE PUSH2 0x13E JUMPI PUSH1 0x40 CALLDATASIZE PUSH1 0x3 NOT ADD SLT PUSH2 0x13E JUMPI PUSH1 0x20 PUSH1 0xFF PUSH2 0xE95 PUSH2 0xE64 PUSH2 0x324 JUMP JUMPDEST PUSH2 0xE6C PUSH2 0x33A JUMP JUMPDEST PUSH1 0x1 PUSH1 0x1 PUSH1 0xA0 SHL SUB SWAP2 DUP3 AND PUSH1 0x0 SWAP1 DUP2 MSTORE PUSH1 0x5 DUP7 MSTORE PUSH1 0x40 DUP1 DUP3 KECCAK256 SWAP3 SWAP1 SWAP4 AND DUP2 MSTORE PUSH1 0x20 SWAP2 SWAP1 SWAP2 MSTORE KECCAK256 SWAP1 JUMP JUMPDEST SLOAD AND PUSH1 0x40 MLOAD SWAP1 ISZERO ISZERO DUP2 MSTORE RETURN JUMPDEST PUSH1 0x0 DUP2 DUP2 MSTORE PUSH1 0x2 PUSH1 0x20 MSTORE PUSH1 0x40 SWAP1 KECCAK256 SLOAD PUSH1 0x1 PUSH1 0x1 PUSH1 0xA0 SHL SUB AND ISZERO PUSH2 0xED9 JUMPI PUSH1 0x0 SWAP1 DUP2 MSTORE PUSH1 0x4 PUSH1 0x20 MSTORE PUSH1 0x40 SWAP1 KECCAK256 SLOAD PUSH1 0x1 PUSH1 0x1 PUSH1 0xA0 SHL SUB AND SWAP1 JUMP JUMPDEST PUSH1 0x40 MLOAD PUSH3 0x461BCD PUSH1 0xE5 SHL DUP2 MSTORE PUSH1 0x20 PUSH1 0x4 DUP3 ADD MSTORE PUSH1 0x2C PUSH1 0x24 DUP3 ADD MSTORE PUSH32 0x4552433732313A20617070726F76656420717565727920666F72206E6F6E6578 PUSH1 0x44 DUP3 ADD MSTORE PUSH12 0x34B9BA32B73A103A37B5B2B7 PUSH1 0xA1 SHL PUSH1 0x64 DUP3 ADD MSTORE PUSH1 0x84 SWAP1 REVERT JUMPDEST ISZERO PUSH2 0xF3A JUMPI JUMP JUMPDEST PUSH1 0x40 MLOAD PUSH3 0x461BCD PUSH1 0xE5 SHL DUP2 MSTORE PUSH1 0x20 PUSH1 0x4 DUP3 ADD MSTORE PUSH1 0x38 PUSH1 0x24 DUP3 ADD MSTORE PUSH32 0x4552433732313A20617070726F76652063616C6C6572206973206E6F74206F77 PUSH1 0x44 DUP3 ADD MSTORE PUSH32 0x6E6572206E6F7220617070726F76656420666F7220616C6C0000000000000000 PUSH1 0x64 DUP3 ADD MSTORE PUSH1 0x84 SWAP1 REVERT JUMPDEST ISZERO PUSH2 0xFAC JUMPI JUMP JUMPDEST PUSH1 0x40 MLOAD PUSH3 0x461BCD PUSH1 0xE5 SHL DUP2 MSTORE PUSH1 0x20 PUSH1 0x4 DUP3 ADD MSTORE PUSH1 0x31 PUSH1 0x24 DUP3 ADD MSTORE PUSH32 0x4552433732313A207472616E736665722063616C6C6572206973206E6F74206F PUSH1 0x44 DUP3 ADD MSTORE PUSH17 0x1DDB995C881B9BDC88185C1C1C9BDD9959 PUSH1 0x7A SHL PUSH1 0x64 DUP3 ADD MSTORE PUSH1 0x84 SWAP1 REVERT JUMPDEST PUSH1 0x40 MLOAD SWAP1 PUSH2 0x1018 DUP3 PUSH2 0x536 JUMP JUMPDEST PUSH1 0x0 DUP3 MSTORE JUMP JUMPDEST PUSH1 0x0 SWAP1 DUP2 MSTORE PUSH1 0x2 PUSH1 0x20 MSTORE PUSH1 0x40 SWAP1 KECCAK256 SLOAD PUSH1 0x1 PUSH1 0x1 PUSH1 0xA0 SHL SUB AND DUP1 ISZERO PUSH2 0x103F JUMPI SWAP1 JUMP JUMPDEST PUSH1 0x40 MLOAD PUSH3 0x461BCD PUSH1 0xE5 SHL DUP2 MSTORE PUSH1 0x20 PUSH1 0x4 DUP3 ADD MSTORE PUSH1 0x29 PUSH1 0x24 DUP3 ADD MSTORE PUSH32 0x4552433732313A206F776E657220717565727920666F72206E6F6E6578697374 PUSH1 0x44 DUP3 ADD MSTORE PUSH9 0x32B73A103A37B5B2B7 PUSH1 0xB9 SHL PUSH1 0x64 DUP3 ADD MSTORE PUSH1 0x84 SWAP1 REVERT JUMPDEST SWAP1 PUSH1 0x1F DUP2 GT PUSH2 0x10A4 JUMPI POP POP POP JUMP JUMPDEST PUSH1 0x0 SWAP2 PUSH1 0x0 MSTORE PUSH1 0x20 PUSH1 0x0 KECCAK256 SWAP1 PUSH1 0x20 PUSH1 0x1F DUP6 ADD PUSH1 0x5 SHR DUP4 ADD SWAP5 LT PUSH2 0x10E2 JUMPI JUMPDEST PUSH1 0x1F ADD PUSH1 0x5 SHR ADD SWAP2 JUMPDEST DUP3 DUP2 LT PUSH2 0x10D7 JUMPI POP POP POP JUMP JUMPDEST DUP2 DUP2 SSTORE PUSH1 0x1 ADD PUSH2 0x10CB JUMP JUMPDEST SWAP1 SWAP3 POP DUP3 SWAP1 PUSH2 0x10C2 JUMP JUMPDEST SWAP2 SWAP1 SWAP2 DUP3 MLOAD PUSH8 0xFFFFFFFFFFFFFFFF DUP2 GT PUSH2 0x531 JUMPI PUSH2 0x1114 DUP2 PUSH2 0x110E DUP5 SLOAD PUSH2 0x4C5 JUMP JUMPDEST DUP5 PUSH2 0x1096 JUMP JUMPDEST PUSH1 0x20 DUP1 PUSH1 0x1F DUP4 GT PUSH1 0x1 EQ PUSH2 0x1157 JUMPI POP DUP2 SWAP1 PUSH2 0x1148 SWAP4 SWAP5 SWAP6 PUSH1 0x0 SWAP3 PUSH2 0x114C JUMPI JUMPDEST POP POP DUP2 PUSH1 0x1 SHL SWAP2 PUSH1 0x0 NOT SWAP1 PUSH1 0x3 SHL SHR NOT AND OR SWAP1 JUMP JUMPDEST SWAP1 SSTORE JUMP JUMPDEST ADD MLOAD SWAP1 POP CODESIZE DUP1 PUSH2 0x1133 JUMP JUMPDEST SWAP1 PUSH1 0x1F NOT DUP4 AND SWAP6 PUSH2 0x116D DUP6 PUSH1 0x0 MSTORE PUSH1 0x20 PUSH1 0x0 KECCAK256 SWAP1 JUMP JUMPDEST SWAP3 PUSH1 0x0 SWAP1 JUMPDEST DUP9 DUP3 LT PUSH2 0x11AA JUMPI POP POP DUP4 PUSH1 0x1 SWAP6 SWAP7 SWAP8 LT PUSH2 0x1191 JUMPI JUMPDEST POP POP POP DUP2 SHL ADD SWAP1 SSTORE JUMP JUMPDEST ADD MLOAD PUSH1 0x0 NOT PUSH1 0xF8 DUP5 PUSH1 0x3 SHL AND SHR NOT AND SWAP1 SSTORE CODESIZE DUP1 DUP1 PUSH2 0x1187 JUMP JUMPDEST DUP1 PUSH1 0x1 DUP6 SWAP7 DUP3 SWAP5 SWAP7 DUP7 ADD MLOAD DUP2 SSTORE ADD SWAP6 ADD SWAP4 ADD SWAP1 PUSH2 0x1172 JUMP JUMPDEST SWAP1 DUP1 MLOAD DUP3 SSTORE PUSH1 0x1 PUSH1 0x20 SWAP1 PUSH1 0x20 DUP4 ADD MLOAD PUSH1 0x1 DUP6 ADD SSTORE PUSH1 0x2 DUP5 ADD SWAP2 PUSH1 0x40 DUP5 ADD MLOAD DUP1 MLOAD SWAP3 PUSH8 0xFFFFFFFFFFFFFFFF DUP5 GT PUSH2 0x531 JUMPI PUSH2 0x1206 DUP5 PUSH2 0x1200 DUP8 SLOAD PUSH2 0x4C5 JUMP JUMPDEST DUP8 PUSH2 0x1096 JUMP JUMPDEST PUSH1 0x20 SWAP3 PUSH1 0x1F DUP6 GT PUSH1 0x1 EQ PUSH2 0x124F JUMPI POP POP SWAP3 PUSH2 0x1243 DUP4 PUSH1 0x60 SWAP5 PUSH2 0x5D2 SWAP9 SWAP8 SWAP5 PUSH1 0x3 SWAP8 PUSH1 0x0 SWAP3 PUSH2 0x114C JUMPI POP POP DUP2 PUSH1 0x1 SHL SWAP2 PUSH1 0x0 NOT SWAP1 PUSH1 0x3 SHL SHR NOT AND OR SWAP1 JUMP JUMPDEST SWAP1 SSTORE JUMPDEST ADD MLOAD SWAP2 ADD PUSH2 0x10EC JUMP JUMPDEST SWAP3 SWAP2 SWAP1 PUSH1 0x1F NOT DUP6 AND SWAP1 PUSH2 0x1267 DUP8 PUSH1 0x0 MSTORE PUSH1 0x20 PUSH1 0x0 KECCAK256 SWAP1 JUMP JUMPDEST SWAP5 PUSH1 0x0 SWAP2 JUMPDEST DUP4 DUP4 LT PUSH2 0x12B3 JUMPI POP POP POP SWAP4 PUSH2 0x5D2 SWAP8 SWAP7 SWAP4 PUSH1 0x3 SWAP7 SWAP4 PUSH1 0x1 SWAP4 DUP4 PUSH1 0x60 SWAP9 LT PUSH2 0x129B JUMPI JUMPDEST POP POP POP DUP2 SHL ADD SWAP1 SSTORE PUSH2 0x1246 JUMP JUMPDEST ADD MLOAD PUSH1 0x0 NOT DUP4 DUP10 SHL PUSH1 0xF8 AND SHR NOT AND SWAP1 SSTORE CODESIZE DUP1 DUP1 PUSH2 0x128E JUMP JUMPDEST DUP5 DUP7 ADD MLOAD DUP8 SSTORE SWAP6 DUP7 ADD SWAP6 SWAP5 DUP2 ADD SWAP5 SWAP2 DUP2 ADD SWAP2 PUSH2 0x126C JUMP JUMPDEST SWAP1 PUSH2 0x12DD PUSH1 0x20 SWAP3 DUP3 DUP2 MLOAD SWAP5 DUP6 SWAP3 ADD PUSH2 0x1B1 JUMP JUMPDEST ADD SWAP1 JUMP JUMPDEST PUSH4 0x4E487B71 PUSH1 0xE0 SHL PUSH1 0x0 MSTORE PUSH1 0x11 PUSH1 0x4 MSTORE PUSH1 0x24 PUSH1 0x0 REVERT JUMPDEST SWAP1 PUSH1 0x1 DUP3 ADD DUP1 SWAP3 GT PUSH2 0x1305 JUMPI JUMP JUMPDEST PUSH2 0x12E1 JUMP JUMPDEST PUSH1 0x30 ADD SWAP1 DUP2 PUSH1 0x30 GT PUSH2 0x1305 JUMPI JUMP JUMPDEST SWAP1 PUSH1 0x2 DUP3 ADD DUP1 SWAP3 GT PUSH2 0x1305 JUMPI JUMP JUMPDEST SWAP2 PUSH2 0x5D2 SWAP4 SWAP2 PUSH2 0x134D SWAP4 PUSH2 0x133D PUSH2 0x493 DUP5 CALLER PUSH2 0x14F8 JUMP JUMPDEST PUSH2 0x1348 DUP4 DUP4 DUP4 PUSH2 0x164A JUMP JUMPDEST PUSH2 0x1EF5 JUMP JUMPDEST PUSH2 0x1CB5 JUMP JUMPDEST PUSH1 0x0 DUP2 DUP2 MSTORE PUSH1 0x2 PUSH1 0x20 MSTORE PUSH1 0x40 SWAP1 KECCAK256 SLOAD PUSH1 0x1 PUSH1 0x1 PUSH1 0xA0 SHL SUB AND ISZERO PUSH2 0x13E1 JUMPI PUSH2 0x138B PUSH2 0x1386 DUP3 PUSH1 0x0 MSTORE PUSH1 0x6 PUSH1 0x20 MSTORE PUSH1 0x40 PUSH1 0x0 KECCAK256 SWAP1 JUMP JUMPDEST PUSH2 0x590 JUMP JUMPDEST SWAP1 PUSH2 0x1394 PUSH2 0x100B JUMP JUMPDEST DUP1 MLOAD ISZERO PUSH2 0x13DC JUMPI DUP3 MLOAD PUSH2 0x13AC JUMPI POP PUSH2 0x20A SWAP2 POP PUSH2 0x1CD9 JUMP JUMPDEST PUSH2 0x20A SWAP2 POP PUSH2 0x13CE PUSH2 0x13C8 SWAP4 PUSH1 0x40 MLOAD SWAP5 DUP6 SWAP4 PUSH1 0x20 DUP6 ADD SWAP1 PUSH2 0x12CA JUMP JUMPDEST SWAP1 PUSH2 0x12CA JUMP JUMPDEST SUB PUSH1 0x1F NOT DUP2 ADD DUP4 MSTORE DUP3 PUSH2 0x56E JUMP JUMPDEST POP POP SWAP1 JUMP JUMPDEST PUSH1 0x40 MLOAD PUSH3 0x461BCD PUSH1 0xE5 SHL DUP2 MSTORE PUSH1 0x20 PUSH1 0x4 DUP3 ADD MSTORE PUSH1 0x31 PUSH1 0x24 DUP3 ADD MSTORE PUSH32 0x45524337323155524953746F726167653A2055524920717565727920666F7220 PUSH1 0x44 DUP3 ADD MSTORE PUSH17 0x3737B732BC34B9BA32B73A103A37B5B2B7 PUSH1 0x79 SHL PUSH1 0x64 DUP3 ADD MSTORE PUSH1 0x84 SWAP1 REVERT JUMPDEST PUSH1 0x0 DUP2 DUP2 MSTORE PUSH1 0x4 PUSH1 0x20 MSTORE PUSH1 0x40 DUP2 KECCAK256 DUP1 SLOAD PUSH1 0x1 PUSH1 0x1 PUSH1 0xA0 SHL SUB NOT AND SWAP1 SSTORE PUSH1 0x1 PUSH1 0x1 PUSH1 0xA0 SHL SUB PUSH2 0x146D DUP4 PUSH2 0x101E JUMP JUMPDEST AND PUSH32 0x8C5BE1E5EBEC7D5BD14F71427D1E84F3DD0314C0F7B2291E5B200AC8C7C3B925 DUP3 DUP1 LOG4 JUMP JUMPDEST PUSH1 0x0 DUP3 DUP2 MSTORE PUSH1 0x4 PUSH1 0x20 MSTORE PUSH1 0x40 SWAP1 KECCAK256 DUP1 SLOAD PUSH1 0x1 PUSH1 0x1 PUSH1 0xA0 SHL SUB NOT AND PUSH1 0x1 PUSH1 0x1 PUSH1 0xA0 SHL SUB DUP4 AND OR SWAP1 SSTORE PUSH1 0x1 PUSH1 0x1 PUSH1 0xA0 SHL SUB DUP1 PUSH2 0x14CD DUP5 PUSH2 0x101E JUMP JUMPDEST AND SWAP2 AND SWAP1 PUSH32 0x8C5BE1E5EBEC7D5BD14F71427D1E84F3DD0314C0F7B2291E5B200AC8C7C3B925 PUSH1 0x0 DUP1 LOG4 JUMP JUMPDEST PUSH1 0x0 DUP3 DUP2 MSTORE PUSH1 0x2 PUSH1 0x20 MSTORE PUSH1 0x40 SWAP1 KECCAK256 SLOAD PUSH1 0x1 PUSH1 0x1 PUSH1 0xA0 SHL SUB AND ISZERO PUSH2 0x1589 JUMPI PUSH2 0x151E DUP3 PUSH2 0x101E JUMP JUMPDEST PUSH1 0x1 PUSH1 0x1 PUSH1 0xA0 SHL SUB DUP3 DUP2 AND DUP3 DUP3 AND DUP2 EQ SWAP5 SWAP1 SWAP2 SWAP1 DUP6 ISZERO PUSH2 0x1571 JUMPI JUMPDEST POP POP POP DUP3 ISZERO PUSH2 0x1547 JUMPI POP POP SWAP1 JUMP JUMPDEST PUSH1 0x1 PUSH1 0x1 PUSH1 0xA0 SHL SUB AND PUSH1 0x0 SWAP1 DUP2 MSTORE PUSH1 0x5 PUSH1 0x20 MSTORE PUSH1 0x40 SWAP1 KECCAK256 PUSH1 0xFF SWAP3 POP PUSH2 0x156C SWAP2 SWAP1 PUSH2 0x3CC JUMP JUMPDEST SLOAD AND SWAP1 JUMP JUMPDEST PUSH2 0x157E SWAP2 SWAP3 SWAP4 SWAP6 POP PUSH2 0xEA1 JUMP JUMPDEST AND EQ SWAP2 CODESIZE DUP1 DUP1 PUSH2 0x1539 JUMP JUMPDEST PUSH1 0x40 MLOAD PUSH3 0x461BCD PUSH1 0xE5 SHL DUP2 MSTORE PUSH1 0x20 PUSH1 0x4 DUP3 ADD MSTORE PUSH1 0x2C PUSH1 0x24 DUP3 ADD MSTORE PUSH32 0x4552433732313A206F70657261746F7220717565727920666F72206E6F6E6578 PUSH1 0x44 DUP3 ADD MSTORE PUSH12 0x34B9BA32B73A103A37B5B2B7 PUSH1 0xA1 SHL PUSH1 0x64 DUP3 ADD MSTORE PUSH1 0x84 SWAP1 REVERT JUMPDEST ISZERO PUSH2 0x15EA JUMPI JUMP JUMPDEST PUSH1 0x40 MLOAD PUSH3 0x461BCD PUSH1 0xE5 SHL DUP2 MSTORE PUSH1 0x20 PUSH1 0x4 DUP3 ADD MSTORE PUSH1 0x24 DUP1 DUP3 ADD MSTORE PUSH32 0x4552433732313A207472616E7366657220746F20746865207A65726F20616464 PUSH1 0x44 DUP3 ADD MSTORE PUSH4 0x72657373 PUSH1 0xE0 SHL PUSH1 0x64 DUP3 ADD MSTORE PUSH1 0x84 SWAP1 REVERT JUMPDEST PUSH1 0x0 NOT DUP2 ADD SWAP2 SWAP1 DUP3 GT PUSH2 0x1305 JUMPI JUMP JUMPDEST SWAP1 PUSH2 0x1654 DUP4 PUSH2 0x101E JUMP JUMPDEST PUSH1 0x1 PUSH1 0x1 PUSH1 0xA0 SHL SUB DUP4 DUP2 AND SWAP3 SWAP1 SWAP2 DUP3 AND DUP4 SWAP1 SUB PUSH2 0x172D JUMPI PUSH2 0x16A3 PUSH2 0x1706 SWAP3 DUP3 AND SWAP5 PUSH2 0x1680 DUP7 ISZERO ISZERO PUSH2 0x15E3 JUMP JUMPDEST PUSH2 0x1689 DUP8 PUSH2 0x1440 JUMP JUMPDEST PUSH1 0x1 PUSH1 0x1 PUSH1 0xA0 SHL SUB AND PUSH1 0x0 SWAP1 DUP2 MSTORE PUSH1 0x3 PUSH1 0x20 MSTORE PUSH1 0x40 SWAP1 KECCAK256 SWAP1 JUMP JUMPDEST PUSH2 0x16AD DUP2 SLOAD PUSH2 0x163B JUMP JUMPDEST SWAP1 SSTORE PUSH1 0x1 PUSH1 0x1 PUSH1 0xA0 SHL SUB DUP2 AND PUSH1 0x0 SWAP1 DUP2 MSTORE PUSH1 0x3 PUSH1 0x20 MSTORE PUSH1 0x40 SWAP1 KECCAK256 PUSH2 0x16D1 DUP2 SLOAD PUSH2 0x12F7 JUMP JUMPDEST SWAP1 SSTORE PUSH2 0x16E7 DUP6 PUSH1 0x0 MSTORE PUSH1 0x2 PUSH1 0x20 MSTORE PUSH1 0x40 PUSH1 0x0 KECCAK256 SWAP1 JUMP JUMPDEST DUP1 SLOAD PUSH1 0x1 PUSH1 0x1 PUSH1 0xA0 SHL SUB NOT AND PUSH1 0x1 PUSH1 0x1 PUSH1 0xA0 SHL SUB SWAP1 SWAP3 AND SWAP2 SWAP1 SWAP2 OR SWAP1 SSTORE JUMP JUMPDEST PUSH32 0xDDF252AD1BE2C89B69C2B068FC378DAA952BA7F163C4A11628F55A4DF523B3EF PUSH1 0x0 DUP1 LOG4 JUMP JUMPDEST PUSH1 0x40 MLOAD PUSH3 0x461BCD PUSH1 0xE5 SHL DUP2 MSTORE PUSH1 0x20 PUSH1 0x4 DUP3 ADD MSTORE PUSH1 0x25 PUSH1 0x24 DUP3 ADD MSTORE PUSH32 0x4552433732313A207472616E736665722066726F6D20696E636F727265637420 PUSH1 0x44 DUP3 ADD MSTORE PUSH5 0x37BBB732B9 PUSH1 0xD9 SHL PUSH1 0x64 DUP3 ADD MSTORE PUSH1 0x84 SWAP1 REVERT JUMPDEST SWAP1 PUSH1 0x40 MLOAD PUSH2 0x178D DUP2 PUSH2 0x536 JUMP JUMPDEST PUSH1 0x0 DUP2 MSTORE PUSH1 0x1 PUSH1 0x1 PUSH1 0xA0 SHL SUB DUP4 AND SWAP2 DUP3 ISZERO PUSH2 0x1877 JUMPI PUSH1 0x0 DUP2 DUP2 MSTORE PUSH1 0x2 PUSH1 0x20 MSTORE PUSH1 0x40 SWAP1 KECCAK256 SLOAD PUSH1 0x1 PUSH1 0x1 PUSH1 0xA0 SHL SUB AND PUSH2 0x1832 JUMPI DUP4 DUP2 PUSH2 0x134D SWAP5 PUSH2 0x17E3 PUSH2 0x5D2 SWAP8 PUSH1 0x1 DUP1 PUSH1 0xA0 SHL SUB AND PUSH1 0x0 MSTORE PUSH1 0x3 PUSH1 0x20 MSTORE PUSH1 0x40 PUSH1 0x0 KECCAK256 SWAP1 JUMP JUMPDEST PUSH2 0x17ED DUP2 SLOAD PUSH2 0x12F7 JUMP JUMPDEST SWAP1 SSTORE PUSH2 0x1807 DUP4 PUSH2 0x16E7 DUP5 PUSH1 0x0 MSTORE PUSH1 0x2 PUSH1 0x20 MSTORE PUSH1 0x40 PUSH1 0x0 KECCAK256 SWAP1 JUMP JUMPDEST PUSH1 0x0 PUSH32 0xDDF252AD1BE2C89B69C2B068FC378DAA952BA7F163C4A11628F55A4DF523B3EF DUP2 DUP1 LOG4 PUSH2 0x1E33 JUMP JUMPDEST PUSH1 0x40 MLOAD PUSH3 0x461BCD PUSH1 0xE5 SHL DUP2 MSTORE PUSH1 0x20 PUSH1 0x4 DUP3 ADD MSTORE PUSH1 0x1C PUSH1 0x24 DUP3 ADD MSTORE PUSH32 0x4552433732313A20746F6B656E20616C7265616479206D696E74656400000000 PUSH1 0x44 DUP3 ADD MSTORE PUSH1 0x64 SWAP1 REVERT JUMPDEST PUSH1 0x64 PUSH1 0x40 MLOAD PUSH3 0x461BCD PUSH1 0xE5 SHL DUP2 MSTORE PUSH1 0x20 PUSH1 0x4 DUP3 ADD MSTORE PUSH1 0x20 PUSH1 0x24 DUP3 ADD MSTORE PUSH32 0x4552433732313A206D696E7420746F20746865207A65726F2061646472657373 PUSH1 0x44 DUP3 ADD MSTORE REVERT JUMPDEST PUSH1 0x0 NOT DUP2 EQ PUSH2 0x1305 JUMPI PUSH1 0x1 ADD SWAP1 JUMP JUMPDEST SWAP1 PUSH2 0x18D4 DUP3 PUSH2 0x6D4 JUMP JUMPDEST PUSH2 0x18E1 PUSH1 0x40 MLOAD SWAP2 DUP3 PUSH2 0x56E JUMP JUMPDEST DUP3 DUP2 MSTORE DUP1 SWAP3 PUSH2 0x18F2 PUSH1 0x1F NOT SWAP2 PUSH2 0x6D4 JUMP JUMPDEST ADD SWAP1 PUSH1 0x20 CALLDATASIZE SWAP2 ADD CALLDATACOPY JUMP JUMPDEST SWAP1 DUP2 MLOAD DUP2 LT ISZERO PUSH2 0x190D JUMPI ADD PUSH1 0x20 ADD SWAP1 JUMP JUMPDEST PUSH4 0x4E487B71 PUSH1 0xE0 SHL PUSH1 0x0 MSTORE PUSH1 0x32 PUSH1 0x4 MSTORE PUSH1 0x24 PUSH1 0x0 REVERT JUMPDEST DUP1 ISZERO PUSH2 0x19AB JUMPI PUSH1 0x0 DUP2 DUP2 DUP2 DUP1 JUMPDEST PUSH2 0x1993 JUMPI POP PUSH2 0x193E DUP2 PUSH2 0x18CA JUMP JUMPDEST SWAP4 JUMPDEST PUSH2 0x194A JUMPI POP POP POP SWAP1 JUMP JUMPDEST PUSH2 0x1953 SWAP1 PUSH2 0x163B JUMP JUMPDEST SWAP1 PUSH1 0xA SWAP1 PUSH2 0x197E PUSH2 0x196E PUSH2 0x1968 DUP5 DUP5 MOD PUSH2 0x130A JUMP JUMPDEST PUSH1 0xFF AND SWAP1 JUMP JUMPDEST PUSH1 0xF8 SHL PUSH1 0x1 PUSH1 0x1 PUSH1 0xF8 SHL SUB NOT AND SWAP1 JUMP JUMPDEST DUP5 BYTE PUSH2 0x198A DUP5 DUP8 PUSH2 0x18FC JUMP JUMPDEST MSTORE8 DIV SWAP1 DUP2 PUSH2 0x1940 JUMP JUMPDEST SWAP2 POP PUSH2 0x19A0 PUSH1 0xA SWAP2 PUSH2 0x18BB JUMP JUMPDEST SWAP2 DIV DUP1 DUP5 SWAP3 SWAP2 PUSH2 0x1930 JUMP JUMPDEST POP PUSH1 0x40 MLOAD PUSH2 0x19B8 DUP2 PUSH2 0x552 JUMP JUMPDEST PUSH1 0x1 DUP2 MSTORE PUSH1 0x3 PUSH1 0xFC SHL PUSH1 0x20 DUP3 ADD MSTORE SWAP1 JUMP JUMPDEST PUSH1 0x40 MLOAD SWAP1 PUSH1 0x60 DUP3 ADD DUP3 DUP2 LT PUSH8 0xFFFFFFFFFFFFFFFF DUP3 GT OR PUSH2 0x531 JUMPI PUSH1 0x40 MSTORE PUSH1 0x40 DUP3 MSTORE PUSH32 0x6768696A6B6C6D6E6F707172737475767778797A303132333435363738392B2F PUSH1 0x40 DUP4 PUSH32 0x4142434445464748494A4B4C4D4E4F505152535455565758595A616263646566 PUSH1 0x20 DUP3 ADD MSTORE ADD MSTORE JUMP JUMPDEST PUSH1 0x2 DUP2 SWAP1 SHL SWAP2 SWAP1 PUSH1 0x1 PUSH1 0x1 PUSH1 0xFE SHL SUB DUP2 AND SUB PUSH2 0x1305 JUMPI JUMP JUMPDEST DUP1 MLOAD ISZERO PUSH2 0x1B23 JUMPI PUSH2 0x1A60 PUSH2 0x19C9 JUMP JUMPDEST PUSH2 0x1A84 PUSH2 0x1A7F PUSH2 0x1A7A PUSH2 0x1A73 DUP6 MLOAD PUSH2 0x1318 JUMP JUMPDEST PUSH1 0x3 SWAP1 DIV SWAP1 JUMP JUMPDEST PUSH2 0x1A39 JUMP JUMPDEST PUSH2 0x18CA JUMP JUMPDEST SWAP2 PUSH1 0x20 DUP4 ADD SWAP2 DUP2 DUP3 MLOAD DUP4 ADD SWAP2 JUMPDEST DUP3 DUP3 LT PUSH2 0x1AD1 JUMPI POP POP POP PUSH1 0x3 SWAP1 MLOAD MOD DUP1 PUSH1 0x1 EQ PUSH2 0x1ABE JUMPI PUSH1 0x2 EQ PUSH2 0x1AB3 JUMPI POP SWAP1 JUMP JUMPDEST PUSH1 0x3D SWAP1 PUSH1 0x0 NOT ADD MSTORE8 SWAP1 JUMP JUMPDEST POP PUSH1 0x3D SWAP1 DUP2 PUSH1 0x0 NOT DUP3 ADD MSTORE8 PUSH1 0x1 NOT ADD MSTORE8 SWAP1 JUMP JUMPDEST SWAP1 SWAP2 SWAP4 PUSH1 0x4 SWAP1 PUSH1 0x3 DUP1 SWAP5 ADD SWAP4 DUP5 MLOAD PUSH1 0x1 SWAP1 PUSH1 0x3F SWAP1 DUP3 DUP3 DUP3 PUSH1 0x12 SHR AND DUP9 ADD ADD MLOAD DUP6 MSTORE8 DUP3 DUP3 DUP3 PUSH1 0xC SHR AND DUP9 ADD ADD MLOAD DUP4 DUP7 ADD MSTORE8 DUP3 DUP3 DUP3 PUSH1 0x6 SHR AND DUP9 ADD ADD MLOAD PUSH1 0x2 DUP7 ADD MSTORE8 AND DUP6 ADD ADD MLOAD SWAP1 DUP3 ADD MSTORE8 ADD SWAP4 SWAP2 SWAP1 PUSH2 0x1A91 JUMP JUMPDEST POP PUSH2 0x20A PUSH2 0x100B JUMP JUMPDEST PUSH1 0x0 DUP2 DUP2 MSTORE PUSH1 0x2 PUSH1 0x20 MSTORE PUSH1 0x40 SWAP1 KECCAK256 SLOAD SWAP2 SWAP3 SWAP2 PUSH1 0x1 PUSH1 0x1 PUSH1 0xA0 SHL SUB AND ISZERO PUSH2 0x1C06 JUMPI PUSH1 0x0 MSTORE PUSH1 0x20 PUSH1 0x6 PUSH1 0x20 MSTORE PUSH1 0x40 PUSH1 0x0 KECCAK256 SWAP1 DUP4 MLOAD SWAP1 PUSH8 0xFFFFFFFFFFFFFFFF DUP3 GT PUSH2 0x531 JUMPI PUSH2 0x1B82 DUP3 PUSH2 0x1B7C DUP6 SLOAD PUSH2 0x4C5 JUMP JUMPDEST DUP6 PUSH2 0x1096 JUMP JUMPDEST PUSH1 0x20 SWAP1 PUSH1 0x1F DUP4 GT PUSH1 0x1 EQ PUSH2 0x1BB5 JUMPI POP DUP2 SWAP1 PUSH2 0x1148 SWAP4 SWAP5 SWAP6 PUSH1 0x0 SWAP3 PUSH2 0x114C JUMPI POP POP DUP2 PUSH1 0x1 SHL SWAP2 PUSH1 0x0 NOT SWAP1 PUSH1 0x3 SHL SHR NOT AND OR SWAP1 JUMP JUMPDEST SWAP1 PUSH1 0x1F NOT DUP4 AND SWAP6 PUSH2 0x1BCB DUP6 PUSH1 0x0 MSTORE PUSH1 0x20 PUSH1 0x0 KECCAK256 SWAP1 JUMP JUMPDEST SWAP3 PUSH1 0x0 SWAP1 JUMPDEST DUP9 DUP3 LT PUSH2 0x1BEE JUMPI POP POP DUP4 PUSH1 0x1 SWAP6 SWAP7 SWAP8 LT PUSH2 0x1191 JUMPI POP POP POP DUP2 SHL ADD SWAP1 SSTORE JUMP JUMPDEST DUP1 PUSH1 0x1 DUP6 SWAP7 DUP3 SWAP5 SWAP7 DUP7 ADD MLOAD DUP2 SSTORE ADD SWAP6 ADD SWAP4 ADD SWAP1 PUSH2 0x1BD0 JUMP JUMPDEST PUSH1 0x40 MLOAD PUSH3 0x461BCD PUSH1 0xE5 SHL DUP2 MSTORE PUSH1 0x20 PUSH1 0x4 DUP3 ADD MSTORE PUSH1 0x2E PUSH1 0x24 DUP3 ADD MSTORE PUSH32 0x45524337323155524953746F726167653A2055524920736574206F66206E6F6E PUSH1 0x44 DUP3 ADD MSTORE PUSH14 0x32BC34B9BA32B73A103A37B5B2B7 PUSH1 0x91 SHL PUSH1 0x64 DUP3 ADD MSTORE PUSH1 0x84 SWAP1 REVERT JUMPDEST PUSH1 0x80 SWAP1 PUSH1 0x20 DUP2 MSTORE PUSH1 0x32 PUSH1 0x20 DUP3 ADD MSTORE PUSH32 0x4552433732313A207472616E7366657220746F206E6F6E204552433732315265 PUSH1 0x40 DUP3 ADD MSTORE PUSH18 0x31B2B4BB32B91034B6B83632B6B2B73A32B9 PUSH1 0x71 SHL PUSH1 0x60 DUP3 ADD MSTORE ADD SWAP1 JUMP JUMPDEST ISZERO PUSH2 0x1CBC JUMPI JUMP JUMPDEST PUSH1 0x40 MLOAD PUSH3 0x461BCD PUSH1 0xE5 SHL DUP2 MSTORE DUP1 PUSH2 0x1CD5 PUSH1 0x4 DUP3 ADD PUSH2 0x1C62 JUMP JUMPDEST SUB SWAP1 REVERT JUMPDEST PUSH1 0x0 DUP2 DUP2 MSTORE PUSH1 0x2 PUSH1 0x20 MSTORE PUSH1 0x40 SWAP1 KECCAK256 SLOAD PUSH1 0x1 PUSH1 0x1 PUSH1 0xA0 SHL SUB AND ISZERO PUSH2 0x1D35 JUMPI PUSH2 0x1CFE PUSH2 0x100B JUMP JUMPDEST DUP1 MLOAD SWAP1 SWAP2 SWAP1 ISZERO PUSH2 0x1D2B JUMPI PUSH2 0x13C8 SWAP2 PUSH2 0x13CE PUSH2 0x1D1B PUSH2 0x20A SWAP4 PUSH2 0x1923 JUMP JUMPDEST PUSH1 0x40 MLOAD SWAP5 DUP6 SWAP4 PUSH1 0x20 DUP6 ADD SWAP1 PUSH2 0x12CA JUMP JUMPDEST POP POP PUSH2 0x20A PUSH2 0x100B JUMP JUMPDEST PUSH1 0x40 MLOAD PUSH3 0x461BCD PUSH1 0xE5 SHL DUP2 MSTORE PUSH1 0x20 PUSH1 0x4 DUP3 ADD MSTORE PUSH1 0x2F PUSH1 0x24 DUP3 ADD MSTORE PUSH32 0x4552433732314D657461646174613A2055524920717565727920666F72206E6F PUSH1 0x44 DUP3 ADD MSTORE PUSH15 0x3732BC34B9BA32B73A103A37B5B2B7 PUSH1 0x89 SHL PUSH1 0x64 DUP3 ADD MSTORE PUSH1 0x84 SWAP1 REVERT JUMPDEST SWAP1 DUP2 PUSH1 0x20 SWAP2 SUB SLT PUSH2 0x13E JUMPI MLOAD PUSH2 0x20A DUP2 PUSH2 0x12C JUMP JUMPDEST PUSH2 0x20A SWAP4 SWAP3 PUSH1 0x80 SWAP3 PUSH1 0x1 DUP1 PUSH1 0xA0 SHL SUB AND DUP3 MSTORE PUSH1 0x0 PUSH1 0x20 DUP4 ADD MSTORE PUSH1 0x40 DUP3 ADD MSTORE DUP2 PUSH1 0x60 DUP3 ADD MSTORE ADD SWAP1 PUSH2 0x1D4 JUMP JUMPDEST PUSH1 0x1 PUSH1 0x1 PUSH1 0xA0 SHL SUB SWAP2 DUP3 AND DUP2 MSTORE SWAP2 AND PUSH1 0x20 DUP3 ADD MSTORE PUSH1 0x40 DUP2 ADD SWAP2 SWAP1 SWAP2 MSTORE PUSH1 0x80 PUSH1 0x60 DUP3 ADD DUP2 SWAP1 MSTORE PUSH2 0x20A SWAP3 SWAP2 ADD SWAP1 PUSH2 0x1D4 JUMP JUMPDEST RETURNDATASIZE ISZERO PUSH2 0x1E2E JUMPI RETURNDATASIZE SWAP1 PUSH2 0x1E14 DUP3 PUSH2 0x6D4 JUMP JUMPDEST SWAP2 PUSH2 0x1E22 PUSH1 0x40 MLOAD SWAP4 DUP5 PUSH2 0x56E JUMP JUMPDEST DUP3 MSTORE RETURNDATASIZE PUSH1 0x0 PUSH1 0x20 DUP5 ADD RETURNDATACOPY JUMP JUMPDEST PUSH1 0x60 SWAP1 JUMP JUMPDEST SWAP1 SWAP2 SWAP1 DUP1 EXTCODESIZE ISZERO PUSH2 0x1EED JUMPI PUSH2 0x1E65 PUSH1 0x20 SWAP2 PUSH1 0x0 SWAP4 PUSH1 0x40 MLOAD SWAP5 DUP6 DUP1 SWAP5 DUP2 SWAP4 PUSH4 0xA85BD01 PUSH1 0xE1 SHL SWAP10 DUP11 DUP5 MSTORE CALLER PUSH1 0x4 DUP6 ADD PUSH2 0x1DA7 JUMP JUMPDEST SUB SWAP3 PUSH1 0x1 PUSH1 0x1 PUSH1 0xA0 SHL SUB AND GAS CALL PUSH1 0x0 SWAP2 DUP2 PUSH2 0x1EBC JUMPI JUMPDEST POP PUSH2 0x1EAE JUMPI PUSH2 0x1E88 PUSH2 0x1E03 JUMP JUMPDEST DUP1 MLOAD SWAP1 DUP2 PUSH2 0x1EA9 JUMPI PUSH1 0x40 MLOAD PUSH3 0x461BCD PUSH1 0xE5 SHL DUP2 MSTORE DUP1 PUSH2 0x1CD5 PUSH1 0x4 DUP3 ADD PUSH2 0x1C62 JUMP JUMPDEST PUSH1 0x20 ADD REVERT JUMPDEST PUSH1 0x1 PUSH1 0x1 PUSH1 0xE0 SHL SUB NOT AND EQ SWAP1 JUMP JUMPDEST PUSH2 0x1EDF SWAP2 SWAP3 POP PUSH1 0x20 RETURNDATASIZE PUSH1 0x20 GT PUSH2 0x1EE6 JUMPI JUMPDEST PUSH2 0x1ED7 DUP2 DUP4 PUSH2 0x56E JUMP JUMPDEST DUP2 ADD SWAP1 PUSH2 0x1D92 JUMP JUMPDEST SWAP1 CODESIZE PUSH2 0x1E7B JUMP JUMPDEST POP RETURNDATASIZE PUSH2 0x1ECD JUMP JUMPDEST POP POP POP PUSH1 0x1 SWAP1 JUMP JUMPDEST SWAP3 SWAP1 SWAP2 SWAP1 DUP3 EXTCODESIZE ISZERO PUSH2 0x1F28 JUMPI PUSH2 0x1E65 SWAP3 PUSH1 0x20 SWAP3 PUSH1 0x0 PUSH1 0x40 MLOAD DUP1 SWAP7 DUP2 SWAP6 DUP3 SWAP5 PUSH4 0xA85BD01 PUSH1 0xE1 SHL SWAP11 DUP12 DUP6 MSTORE CALLER PUSH1 0x4 DUP7 ADD PUSH2 0x1DD2 JUMP JUMPDEST POP POP POP POP PUSH1 0x1 SWAP1 JUMP INVALID LOG2 PUSH5 0x6970667358 0x22 SLT KECCAK256 PUSH4 0x32B24622 SMOD SWAP12 STATICCALL BALANCE 0xB7 DIFFICULTY SWAP14 PUSH24 0x8255EF64A15FC6D14F452A0F5429FE9F416A4D64736F6C63 NUMBER STOP ADDMOD XOR STOP CALLER ",
  "sha1": "a0a8f3a62c33764f692906731969dd6c16b3579d",
  "source": "// SPDX-License-Identifier: MIT\n\npragma solidity ^0.8.0;\n\nimport \"@openzeppelin/contracts/token/ERC721/extensions/ERC721URIStorage.sol\";\nimport \"@openzeppelin/contracts/utils/Strings.sol\";\nimport \"@openzeppelin/contracts/utils/Base64.sol\";\n\ncontract EnergyD is ERC721URIStorage {\n    struct EnergyData {\n        uint256 wattHours;\n        uint256 timestamp;\n        string location;\n        string powerPlantType;\n    }\n    \n    uint256 private s_tokenCounter;\n\n    event edMinted(uint256 indexed tokenId);\n\n    mapping(uint256 => EnergyData) public energyData;\n\n    constructor() ERC721(\"RenewTrust\", \"RNT-E\") {\n        s_tokenCounter = 0;\n    }\n\n    function mint(\n        address to,\n        uint256 wattHours,\n        uint256 timestamp,\n        string memory location,\n        string memory powerPlantType\n    ) public {\n        \n        _safeMint(to, s_tokenCounter);\n        emit edMinted(s_tokenCounter);\n\n        energyData[s_tokenCounter] = EnergyData(wattHours, timestamp, location, powerPlantType);\n\n        // Data\n        string memory json = string(\n            abi.encodePacked(\n                '{\"name\": \"Energy NFT #',\n                Strings.toString(s_tokenCounter),\n                '\", \"description\": \"Represents energy generated by a power plant.\", \"attributes\": [',\n                '{\"trait_type\": \"Watt-Hours\", \"value\": ',\n                Strings.toString(wattHours),\n                '},',\n                '{\"trait_type\": \"Timestamp\", \"value\": ',\n                Strings.toString(timestamp),\n                '},',\n                '{\"trait_type\": \"Location\", \"value\": \"',\n                location,\n                '\"},',\n                '{\"trait_type\": \"Power Plant Type\", \"value\": \"',\n                powerPlantType,\n                '\"}',\n                ']}',\n                '}'\n            )\n        );\n\n        string memory base64Encoded = Base64.encode(bytes(json));\n        string memory tokenURI = string(abi.encodePacked(\"data:application/json;base64,\", base64Encoded)); \n\n        _setTokenURI(s_tokenCounter, tokenURI);\n        s_tokenCounter = s_tokenCounter + 1;\n    }\n\n    function getEnergyData(uint256 tokenId) public view returns (EnergyData memory) {\n        return energyData[tokenId];\n    }\n\n    function getTokenCounter() public view returns (uint256) {\n        return s_tokenCounter;\n    }    \n}\n",
  "sourcePath": "contracts/EnergyD.sol",
  "type": "contract"
}